:020000041000EA
:1000000000B5324B212058609868022188439860DF
:10001000D860186158612E4B002199600221596106
:100020000121F02299502B49196001219960352056
:1000300000F044F80222904214D00621196600F024
:1000400034F8196E01211966002018661A6600F04E
:100050002CF8196E196E196E052000F02FF8012189
:100060000842F9D1002199601B49196000215960AB
:100070001A491B48016001219960EB211966A021F2
:10008000196600F012F800219960164914480160C1
:100090000121996001BC002800D000471248134993
:1000A000086003C880F30888084703B5996A0420EC
:1000B0000142FBD001200142F8D103BD02B5186610
:1000C0001866FFF7F2FF186E186E02BD00000240BE
:1000D000000000180000070000035F00212200005C
:1000E000F4000018222000A00001001008ED00E03C
:1000F00000000000000000000000000074B24E7A12
:1001000000200420F7010010C3010010C5010010F9
:10011000C1010010C1010010C1010010C101001097
:10012000C1010010C1010010C1010010C701001081
:10013000C1010010C1010010C9010010CB01001065
:10014000CD010010CD010010CD010010CD01001037
:10015000CD010010CD010010CD010010CD01001027
:10016000CD010010CD010010CD010010CD01001017
:10017000CD010010CD010010CD010010CD01001007
:10018000CD010010CD010010CD010010CD010010F7
:10019000CD010010CD010010CD010010CD010010E7
:1001A000CD010010CD010010CD010010CD010010D7
:1001B000CD010010CD010010CD010010CD010010C7
:1001C00000BE00BE00BE00BE00BE00BEEFF3058054
:1001D000103800BEF2EB887190330010AC33001081
:1001E0003402001090A31AE700201F49086006C8D7
:1001F00081F3088810471D48006800282FD10DA4FE
:100200000ECC002902D000F012F8F9E71849194A7B
:10021000002000E001C19142FCD1174988471749ED
:1002200088471749884700BEFDE701C901C29A42C5
:10023000FBD37047AC330010C000002090060020B4
:100240007C39001000000420000004207C390010DC
:10025000001004200010042000000000704709482E
:1002600001F0B4FC0047000008ED00E0000000D001
:1002700090060020880A0020451A0010050300108F
:10028000391B00105756000006005250ABB36053A4
:100290003C33001006005250861C03024C33001001
:1002A000060052505422A29D5C33001005005250AB
:1002B000DE65F4687C390010F8B5C04610B5064C10
:1002C0002378002B07D1054B002B02D0044800E017
:1002D00000BF0123237010BD900900200000000022
:1002E000E0320010044B10B5002B03D00349044842
:1002F00000E000BF10BDC0460000000094090020CF
:10030000E0320010F8B5CE464746192080B500F01F
:100310001DF9D0238022564C1B0692045A622000FD
:1003200002F0A0FD534B984607E051610122534073
:1003300042466420137000F0FBFD00F0E7FE06006B
:1003400020000D0002F0C6FD02F05EFF142101F056
:100350006FFC02297DD00023474A3000290001F0BC
:10036000CDFC01F005FF454A454B01F0F4FE01F0DC
:100370000BFFCB070700400818430E00490802F0A6
:10038000BDFA02F0C9FAFE21890502F063FAFC21E8
:10039000890502F076FA3B4902F073FA02F000FB9D
:1003A000814602F09DFAB307C5B2B8081843B108F8
:1003B00002F0A4FA02F0B0FAFE21890502F04AFA2E
:1003C000FC21890502F05DFA2F4902F05AFA02F089
:1003D000E7FA02F085FAC6B22900012332002000B4
:1003E000771C02F051FDFFB229000135EDB2012367
:1003F0003A00200002F048FD2900012332002000CD
:1004000002F042FD01233A002900200002F03CFDE9
:100410001D49484602F01EFA02F062FAC5B22900F0
:1004200001233200200002F02FFD290001350123B5
:100430003A002000EDB202F027FD0123320029002E
:10044000200002F021FD01233A002900200002F0E3
:100450001BFD200002F04CFD4346D02280211B787A
:1004600012068904002B00D05FE791615EE7C04669
:10047000240A0020860A002040420F00182D445410
:10048000FB210940000040400000A04010B50D4B8A
:100490000D4C23600D4B2000236104236360013366
:1004A000A360023BE36002F045FE094B094A80214C
:1004B0005A60002249041C609A60D9601A615A612E
:1004C00010BDC04630020020440A0020801A0600F9
:1004D000240A002061400E00094A8300944640220D
:1004E000634410B51C68C0006240C02414408022E0
:1004F000520113431C60034B9C466044416010BD95
:1005000004C0014000400140034BC0009C466044D1
:1005100043681F2018407047004001400A4B80008C
:100520009C4604236044002901D00C230821002AA2
:1005300000D10B00026853400C221A4080235B015B
:10054000184302607047C04604C001400123D02216
:100550008340120693629361094A830094464022C5
:1005600063441968C0004A40C021114080225201F2
:1005700013431960034B9C46052360444360704756
:1005800004C0014000400140024B18688007C00FC2
:100590007047C04600C0064070B5EFF3108C72B6CD
:1005A0000D4D2B68002BFCD0BFF35F8F0724CB08C9
:1005B000C618C05C01230C40A3401C000440034249
:1005C00007D103433370BFF35F8F2C608CF3108827
:1005D00070BD100001F0B4FA2C0100D00021044BD2
:1005E000044ABFF35F8F02C39342FAD17047C046FB
:1005F000000100D0800100D0044A1078431CDBB217
:10060000172B00D9102313707047C04698010020A3
:1006100001238340002904D0034A1360034A136076
:100620007047034A1360FBE780E200E000E100E06E
:1006300080E100E0024B10309B688000C05870479A
:1006400000ED00E070B50D00EFF3108672B60F4AB2
:100650001368002BFCD0BFF35F8F0D4B10309B68ED
:1006600084001B590B4A934203D09D4201D001F0F4
:100670007FFA074B9B681D51BFF35F8FBFF35F8FFE
:100680000022024B1A6086F3108870BD240100D04E
:1006900000ED00E0CD010010F0B5DE4657464E46B5
:1006A0004546E0B50C0083B0EFF3108972B6584AA6
:1006B0001368002BFCD0BFF35F8F564B9A68030082
:1006C00010339F00D559544A9046954232D0A542E6
:1006D00043D0524EAA1B2F2A2CD801228240924688
:1006E00051464F4A12681140019151464D4A1160DE
:1006F000BFF35F8FEFF305829346002A33D10123C6
:100700002A009A4393689C4208D177E04B005B181B
:100710009B00F3189968A1422AD01A00062151566D
:100720000029F3DA019B002B19D052463E4B1A6088
:100730003B4B1A60374B9B68DD51BFF35F8FBFF3B4
:100740005F8F0022324B1A6089F3108803B0F0BC2F
:10075000BB46B246A946A046F0BD1500EAE75246A0
:10076000304B1A60E6E79342C9D001F001FAC6E7C0
:1007700006215956002921DB4A0050188000341800
:100780008046A0689860E079D8710620205698715C
:10079000002824DBA488F01A6405241544440019B9
:1007A000E0240005400D24022043988052181F4B7E
:1007B0009200B6181A781970B271B3E75946002939
:1007C0000FD1FF3191711A49918018490A789A71B5
:1007D000184A9B1B5B415A43120D0A70A2E7164848
:1007E000E3E7164A1649D21A083A5002400D01436F
:1007F0009980144952080A43DA8093E7062151563A
:1008000013000029B8DA5A46002AEAD14546DCE747
:10081000240100D000ED00E0CD0100109C0100207B
:1008200000E100E080E100E080E200E0850A0020D5
:1008300001BDFFFFAAAA000001BD0000D6010020F3
:1008400000F0FFFF00F8FFFF70B5EFF30581012412
:100850000443EFF3108C72B6214A1368002BFCD0CE
:10086000BFF35F8F1F4B05001F4AED1A6D416A43AE
:10087000120D1E4D8900AE6852B27658A6421CD0A9
:100880000621595691421CD012215956914222D02C
:100890001E215956914220D02A21595603249142B3
:1008A00010D0134B19781A708171BFF35F8F00223B
:1008B0000B4B1A608CF3108870BDAB680D4C5C500C
:1008C000EFE700246100091989005B18FF21997185
:1008D00009499980E5E70124F4E70224F2E7C046DC
:1008E000240100D09C010020AAAA000000ED00E035
:1008F000850A0020CD01001001BDFFFF054B064A0F
:100900001360064A136053609360D36013615361B0
:10091000936170478080808000E400E004E400E0A0
:10092000024B9C46614489000160704740000034DE
:1009300010B50400FFF760FE01002000FFF7F0FF94
:10094000FF232371BFF35F8F10BDC04610B50400B5
:10095000FFF752FE01002000FFF7E2FFFF23A38014
:10096000BFF35F8F10BDC04683680B4810B5844647
:1009700061446244090112019A18591854684B687D
:1009800001209C4201D802D00020C0B210BD1268E4
:100990000B689A42F9D8F7E7FFFFFF0F0A4B196877
:1009A000EFF3108072B60A68002AFCD0BFF35F8FA5
:1009B0001B68BFF35F8F00221A6080F3108840BF6E
:1009C000002000217047C046700A0020F8B5574645
:1009D0004E464546DE46E0B599460CAB1C780DAB5D
:1009E0001B78060090469A460768002C11D1BC7B04
:1009F000002C42D065003B682D19033D59194B78F6
:100A0000BB73002B00D1FB7300238B704B700B70FA
:100A100004E065003B682D19033D5919B2682A4B63
:100A200094464246E3181B0163441A604A465A60E2
:100A30000A9A9A600B9ADA6000238B704B700B70E5
:100A40007B7B9B46002B2BD022005946B8687B68E5
:100A500098473A68002816D05B4658465B005B44CE
:100A60005519033BA870D118D35C002B00D06B70D4
:100A70005B460C707B73A34513D0F0BCBB46B246FB
:100A8000A946A046F8BD5B465B005B44033BD31818
:100A90009C705119525D002A00D05A705B460B7051
:100AA0007C7342464B46307D00F090FB051E06D01D
:100AB0005346002B03D12100306800F0ABFD0E9BA4
:100AC000002BDAD01D70D8E7FFFFFF0FF0B5DE4630
:100AD00057464E4645460023E0B58BB00893674B1A
:100AE0008200D45800239B46099000F00FFB6268F7
:100AF00006000F00EFF3108572B61368002BFCD0D0
:100B0000BFF35F8F23689C465B7B9946002B00D127
:100B100069E0A2685A4B90464B441B0198444346F7
:100B20001A685B6810001900801BB941002900DCBD
:100B300063E0099800F04AFB002300229846002356
:100B40000692079300239A466368BFF35F8F5A4665
:100B50001A6085F310885346002B08D10028C4D1B1
:100B60000BB0F0BCBB46B246A946A046F0BD089B00
:100B7000414618024B461843D047626806000F00F2
:100B8000EFF3108572B61368002BFCD0BFF35F8FB4
:100B9000002F50DB33003B4302D02369002B61D18F
:100BA0002368D97B002907D04A00521819688C465F
:100BB00049466244033A51709A7B002A01D14A4661
:100BC0009A734A46DA734B46E168013BCA5C0132CC
:100BD000CA545B4623616368BFF35F8F5A461A604D
:100BE00085F3108881E700230022984600230692AF
:100BF0000793002300209A46A6E7002902D1002887
:100C000000D096E70021604600F082FC43461A6857
:100C10005B680692079343469B689A464346DB68A7
:100C20009846E3684B44013B1B7808931B0203433F
:100C30002361002088E72369002BB1D0069A079B27
:100C4000921BBB41002B15DB5946049101210391F6
:100C50004946029141460191514620000091FFF71B
:100C6000B5FEB6E700F052FA32003B0012184B41D5
:100C7000002BE9DA0122034B5242E5E75C0A00202F
:100C8000FFFFFF0FFFFFFF7F10B5144C6368002BC1
:100C900004D00A211248FFF743FE10BD2300114A79
:100CA0001021206800F04EFB032000F023FA0320FF
:100CB00000F0F6FA03200C4900F042FAFFF79CFC22
:100CC0000A4B9C4603232375D0231B061B686044F4
:100CD0006375074B80006060DC60DAE7E4010020A8
:100CE000700A002069090010CD0A0010400000348D
:100CF0005C0A0020F0B54E464546DE465746E0B554
:100D000085B0019310AB1B7806000393002399462E
:100D1000984600927268EFF3108B72B61368002B3E
:100D2000FCD0BFF35F8F3568AC7B002C3DD06700F3
:100D30002B683F19033FDB195A78AA73002A00D1A8
:100D4000EA73B168474A8C4600980199A2181201CB
:100D50006244106051600E9991600F99D1604246D3
:100D60009A705A701A706B7B9A46002B67D02200DB
:100D70001900A8686B6898472A68002852D0534623
:100D800050465B005344D719033BB870D118D35C6D
:100D9000002B00D07B7053460C706B7354454FD0C2
:100DA000F3681B19013B187800E000207368BFF35B
:100DB0005F8F42461A608BF31088002C4FD04B4651
:100DC000002B08D10002204305B0F0BCBB46B24660
:100DD000A946A046F0BD039B002B3ED00E9B0020F1
:100DE0000F999847030004000D000B4335D00029EC
:100DF0000ADA009A019B121BAB4100920193002B6F
:100E00000ADB039B994685E700F080F924184D41E1
:100E100000940195002DF4DA0123134C5B420093FA
:100E20000194EEE753465B005344033BD3189C7098
:100E3000D119D25D002A00D05A7053460B706C73E2
:100E4000307D009A019B00F0C1F981460028A7D0AF
:100E50002100306800F0DEFBA2E70020B4E70120AB
:100E60004042B1E7FFFFFF0FFFFFFF7FF0B5040037
:100E70000D0006267642F717C64636196F4100B5B3
:100E800084B08F4214D811D000F040F932003B00FA
:100E9000121A8B41002B15DC002B3ED020002900BC
:100EA00000F03EF904B080BCB846F0BD8642EBD9F4
:100EB0000026002700F02AF932003B00121A8B416D
:100EC000002BE9DD002302930193154B32000093C0
:100ED00014483B00FFF70EFF0028DFDB0023984695
:100EE000BC46114A114F7B6A9C4504D8B96A8E42B0
:100EF000D4D99C45D2D11168EFF3108072B60B683B
:100F0000002BFCD0BFF35F8F1368BFF35F8F4146A8
:100F1000196080F3108820BFE5E7002ABED0D1E732
:100F20009D090010E4010020700A002000400540E7
:100F300070B5060000F0EAF8FA2204000D00002364
:100F400030000021920001F065FC00196941002980
:100F500002DBFFF78BFF70BD012001494042F8E73B
:100F6000FFFFFF7FF0B5EFF30583CE46474680B520
:100F700005000C0085B0002B12D02C4A0020536ACB
:100F80009C4203D8926A0130AA4204D305B0C0BC87
:100F9000B946B046F0BDE01A421E9041C0B2F5E736
:100FA000234E02930193234B0200009330000B0069
:100FB000FFF7A0FE031EE0DD20BF7168EFF310878E
:100FC00072B60A68002AFCD0BFF35F8FDAB294468B
:100FD0003068427B62451DD0FF221A40510089468D
:100FE000016891448846494641440339897800297B
:100FF00013D0F1681B0A88464244013A1278DBB2EA
:101000009A420FD07368BFF35F8F00221A6087F394
:101010001088B2E7FF221A40EBE732699342F1D120
:101020003161EFE7614600F0F5FAEBE7004005407B
:10103000E40100209D090010F0B5EFF30582D646CB
:101040004F4646461000C0B51038EFF3108872B610
:10105000214C2368002BFCD0BFF35F8F01231900C4
:1010600081401E4D1F006963AA461D4D29601D4D1C
:101070002E78AC463500C5402F402B4209D1BFF336
:101080005F8F276088F31088E0BCBA46B146A84657
:10109000F0BD5346144D5F6A83005D59AF420ED3D5
:1010A000124A8E439B5862461670BFF35F8F002230
:1010B000226088F31088002BE6D09847E4E70C4BB9
:1010C00092009C46624413681360BFF35F8F002355
:1010D000236088F31088D7E7280100D0004005403E
:1010E0003C700540870A0020740A0020AC090020EB
:1010F000D03F054010B50100024A0348FFF74CFA03
:1011000010BDC046E0320010840A0020034B596A2B
:101110000A00986A596A8A42FAD17047004005402D
:10112000064A536A9942FCD807D1044B02E05A6A36
:10113000914202D19A6A8242F9D370470040054039
:1011400070B504000D00EFF3108672B61A4A1368EA
:10115000002BFCD0BFF35F8F002D1BD02000FFF7CA
:1011600069FA164981420AD02000FFF76BFA012183
:101170002000FFF74DFA0123A340114A1360114BE1
:10118000A400E550BFF35F8F00220B4B1A6086F37B
:10119000108870BD0B4BA200D5500122A2400A4915
:1011A00020000B7893430B700449FFF775FA002178
:1011B0002000FFF72DFAE5E7280100D039100010D4
:1011C00038600540AC090020870A0020F0B54F4682
:1011D000D6464646C0B507002C4C616A0D00A66A8B
:1011E000616AA942FAD18B4208D805D00120E0BC3F
:1011F000BA46B146A846F0BDB242F7D9EFF3108A1D
:1012000072B6234801680029FCD0BFF35F8F012527
:10121000BD4020491D4C8846097889462943C9B2FA
:101220008C46414660460870391D1B48890065633D
:101230000A51B9000B50216A0020294219D0616A75
:101240000800A66A616A8142FAD18B4219D801D19D
:10125000B24216D8CC4516D00C4B1F201D625D63E0
:1012600001230740BB400D4A1E38136043464A46DF
:101270001A70BFF35F8F0022054B1A608AF3108843
:10128000B5E70020F5E70120F3E7C0460040054040
:10129000280100D0870A0020740A002080E200E0C4
:1012A000EFF3108C72B60A490B68002BFCD0BFF329
:1012B0005F8F01238340074A0748136202789A43ED
:1012C0000270BFF35F8F00230B608CF310887047B0
:1012D000280100D000400540870A002070B50500B5
:1012E00014001600002915D00C00002A12D08068C6
:1012F0006B689847296800280ED073009B1962001C
:10130000033B1219CB18033A9C7088188A5C002A98
:1013100015D10670200070BD63001B197200033BDD
:101320009219CB18033A9E7088188A5C002A02D161
:1013300004703400EEE75A7004703400EAE75A7023
:101340000670E7E730B583600023CCB24373013306
:10135000047342608373C4730D000068012C06D9C6
:10136000421C0133DBB2137003329C42F9D1FF21DE
:1013700029404B005918002340180338437030BDF2
:10138000F8B5CE46474606000C0080B5002907D0C8
:101390004D0003686D18033D5A195778002F04D18A
:1013A0002000C0BCB946B046F8BD7900C919033960
:1013B00088464344597889460021597051707368B2
:1013C0003A002100806898473368002814D04246CC
:1013D0009A18947059195B5D002B00D053700F70F0
:1013E000270049463000FFF7CBFF390002003000EC
:1013F000FFF774FF0400D3E7424641465D19AF7022
:101400009A185B5C002B00D06B701470E9E7C04643
:10141000F0B557464546DE464E46E0B50D006B003A
:1014200001685B19DF1E0400C85D83B00192CA1910
:10143000002850D043001B18033BCB185E78B446FD
:10144000002E1AD1019E002E42D0E67B002E04D041
:1014500073009B19CB18033B5D70A37B002B00D15D
:10146000A573E57300282FD10023537003B0F0BC9F
:10147000BB46B246A946A046F0BD72006244033A9C
:1014800089184A78904600224A7091465A700100A5
:1014900032002000FFF722FF43468246002B07D090
:1014A0005B0021684344033BCB185A78002A16D1CD
:1014B000424651462000FFF711FF2168019BCA19DF
:1014C000002BC2D10028CFD043001B18033BCB1800
:1014D00000219970C8E7019B002BB6D1C4E75000EA
:1014E0008018033809184878834648464870587071
:1014F00041462000FFF7F2FE594680462000FFF7E4
:101500003FFF414602002000FFF7E8FE8046CFE79C
:10151000F0B557464546DE464E46E0B583B00191EC
:10152000457B04006B0000685B19DF1EC15DC219BA
:10153000002952D04B005B18033BC3185E78B446B9
:10154000002E1CD1019E002E44D0E67B002E04D03C
:1015500073009B19C318033B5D70A37B002B00D164
:10156000A573E573002931D10023280053706173FE
:1015700003B0F0BCBB46B246A946A046F0BD72001F
:101580006244033A801842789046002242709146A5
:101590005A7020003200FFF7A1FE43468246002B1E
:1015A00007D05B0021684344033BCB185A78002ADC
:1015B00017D1424651462000FFF790FE019B0100E3
:1015C0002068C219002BC0D10029CDD04B005B1878
:1015D000033BC31800209870C6E7019B002BB4D1D1
:1015E000C2E75000801803380918487883464846F7
:1015F0004870587041462000FFF770FE59468046FB
:101600002000FFF7BDFE414602002000FFF766FE06
:101610008046CEE770B5040000292CD0437B8B4276
:101620002ED0056848004018033828188278002A10
:1016300021D053009B18033BEA5CEE188A4202D18A
:101640001BE0002A08D053009B18033BEB185A7884
:101650008A42F6D142785A70002301228370437087
:101660002000FFF7D5FE617B02002000FFF736FE69
:101670006073012000E0002070BD43783370EBE719
:1016800001221900FFF7C4FE60730120F4E7C04691
:1016900030B50C2083B000F0B9F9FEF775FF0028D3
:1016A0000ED0994B994A1A605A609A60DA601A61B2
:1016B0005A619A61DA611A62954A5A6203B030BD82
:1016C000944CA06700F0AAF90122934B1A60636C56
:1016D000012BFCD10322914B1A608E4A936B012B94
:1016E000FCD1013301218E4A8E480093043300F06F
:1016F0003DF905238C4A009301218C4800F036F90E
:101700008B4B5A68FF2A02D8802252005A608022EE
:101710007D4C824B21691201854D1A60002907D04A
:10172000606900F0ADFA431C5800C0180338FDD2C0
:10173000E0217F4B02201A681140802252012A4387
:1017400011601968484003210140116004219A6822
:101750001142FCD08022802192012A4309011160AC
:10176000802252005A60734B2361734B5968FF29E2
:1017700000D85A600321684A6F4B116002399A6899
:101780001142FCD0E0201A681040802252011A4316
:10179000106018684840032101400220116066492A
:1017A0008A681042FCD080229201134380221201E9
:1017B0001A608022614B52004A606361604B596835
:1017C000FF2900D85A6080225E4BE16912015C4D0E
:1017D0001A60002907D0606900F052FA431C5800D3
:1017E000C0180338FDD2E02255490B681A40802307
:1017F0005B012B431A60802380229B012B43120143
:101800001A608022414B52004A60E3614E4B596896
:10181000FF2900D85A6080224C4B216A12014A4DA0
:101820001A60002907D0606900F02AFA431C5800AA
:10183000C0180338FDD2E02243490B681A408023C8
:101840005B012B431A60802380229B012B431201F2
:101850001A60802380225B004B602C4BD2022362F3
:101860003B4B5968914200D25A608022394B616AE1
:101870001201374D1A60002907D0606900F000FAA4
:10188000431C5800C0180338FDD2E02230490B68D1
:101890001A4080235B012B431A60802380229B0126
:1018A0002B4312011A608023DB024B60184B6362EA
:1018B000294B5A68FF2A02D8802252005A6080229F
:1018C000264BA1691201244D1A60002907D06069D6
:1018D00000F0D6F9431C5800C0180338FDD2E022AE
:1018E0001D490B681A4080235B012B431A6080233B
:1018F00080229B012B4312011A6080235B004B6006
:101900000E4BA361DAE6C046BC090020006CDC0285
:101910001BB70000008000403CB0004030B00040E9
:10192000002F685900800240008C864700C00240AA
:1019300030800040001BB7003C80004040597307D6
:101940005480004054B000406080004060B00040CF
:101950006C8000406CB000404880004048B00040BF
:10196000014B8000C0587047BC090020F8B5040046
:1019700021481D0017000E0000F082F90100380018
:1019800000F07EF9069B29041B0319432368002BF2
:1019900020DB1A4B1A4DE21853425A4180235B0157
:1019A0009C461203174B62441A60174B1A601700CB
:1019B000AB689F43FBD1C022231D92011A43212310
:1019C0002660A06013602368002BFCDA0823E16026
:1019D0001360F8BD3F2322681340B342D9D1A368F6
:1019E0001B051B0D8342D4D1EE22E368D2021340C3
:1019F0008B42CED1EDE7C046001BB7000040FDBFD3
:101A000000C0004000E0004000F000408023024A97
:101A10009B000343D362704700800540AA23064A17
:101A20001B0113602F230549D360054B19605368D0
:101A3000002BFCDA7047C0460040024000B0FA00BC
:101A4000006002402C4B2D4A70B51A602C4A2D4B79
:101A50002D491A6014008B689C43FBD12B4D2C4EF2
:101A6000B54208D2013E761BB60808CD9847230040
:101A70000134B342F9D1FFF70BFE264A214B1A601D
:101A8000214A9368DB43DB01DD09002BF9D14022B9
:101A9000214B224C224E9A675A671A67DA66B44283
:101AA00008D223682000002B20D00834FEF74EFF18
:101AB000B442F6D31B4E1C4CC022A168300001F08A
:101AC00081F8A660FEF78AFDFEF718FFFFF7DCF845
:101AD000164C174EB44208D2013E361BB60808CC4D
:101AE00098472B0001359E42F9D170BD0834FEF7AE
:101AF0001FFFB442D5D3DDE700E00040BFCDFBFEC1
:101B0000FE7F3C0000F0004000C00040780600204E
:101B100088060020FFFFFF0100F001407006002052
:101B2000780600200000002000ED00E0880600207C
:101B30009006002000BEFDE710B5FFF7FBFFC04692
:101B40000FB400B5084883B001F06EF9049B002B78
:101B500007D005A91800019100F018F8034801F01A
:101B600063F90120FFF7E6FF04330010143300107F
:101B700010B50148FFF7E4FF1833001010B5002836
:101B800000D110BD01F004F9FBE7C04610B5094AC9
:101B90000300146884B0002C08D00122009106488C
:101BA000524203A9A047012004B010BD01F03CF946
:101BB0000020F9E7580A00207D1B0010014804218D
:101BC000014B184710020020ED1B0010142310B524
:101BD0000100188804331B88984710BD162310B5E0
:101BE0000100188802331B88984710BDF8B5474696
:101BF000CE4680B50F1E19D0142399460433040035
:101C00000025012698464B461888434621681B88C4
:101C1000984701C4431E9841013540420640AF42F7
:101C2000F1D13000C0BCB946B046F8BD0126F8E796
:101C3000124A936F9B0815D29066D166002905D091
:101C4000FFE7FFE7FFE7516F106F704704B5802192
:101C50000906C2175140002800D0C84301F030FBEC
:101C6000002104BDF0B5146E556E576F166FFFF767
:101C7000E3FF1466556657671667F0BD000000D095
:101C8000114A936F9B0813D210665166002905D044
:101C9000FFE7FFE7FFE7516F106F704704B50028BB
:101CA00001D00020C04301F00BFB002104BDC04661
:101CB000F0B5146E556E576F166FFFF7E5FF14669B
:101CC000556657671667F0BD000000D094464A4A33
:101CD000926F9208624601D228E0C046F0B5464EA7
:101CE000346E756E776F366F00F020F89446424A76
:101CF00014665566576716676246F0BD94463E4ABD
:101D0000926F9208624601D254E0C046F0B53A4E56
:101D1000346E756E776F366F00F04CF89446364A25
:101D200014665566576716676246F0BD002B24DBC4
:101D300011D000293EDA00B5C943404200D101313B
:101D400000F038F8C943404200D10131DB43524230
:101D500000D1013300BD002AEBD1002801D10029B8
:101D600005D00020C90FC90701D1C043410800B503
:101D700001F09EFA0022002300BD00B500290ADB15
:101D8000DB43524200D1013300F014F8C943404212
:101D900000D1013100BDC943404200D10131DB43D4
:101DA000524200D1013300F005F8DB43524200D12A
:101DB000013300BD002923D1002B18D1002A0CD0FB
:101DC000BC460D4F38667A6600210023FFE7FFE727
:101DD000FFE77A6F386F67467047002801D00748E1
:101DE000010000B501F064FA0022002300BD0200EA
:101DF0000B00002000217047000000D0FFFFFFFF14
:101E0000002B00D0BFE0130C28D1002AE7D080B40B
:101E1000114F39667A66FFE7FFE730B4040C7B6F39
:101E2000396F1B0423433B667A66FFE7FFE7FFE752
:101E3000C04684B27B6F3D6F1B0423433B667A66CA
:101E4000FFE7FFE7C04600232C042D0C7A6F386FA4
:101E500000196941B0BC7047000000D0F0B594464D
:101E60000025140E01D112020835140F01D1120100
:101E70000435940F01D192000235D40F01D15200E4
:101E80000135D40B0134254F7C66254C3C660E0C85
:101E900093B2FFE7FFE7FFE73C6F6643360C77033B
:101EA000BE467343DF0B5B04C01AB941130C734386
:101EB000DB18C91ACE086643360CB64493B2734396
:101EC0001F0F1B01C01AB941130C73431F0B1B05D5
:101ED000C01AB941860D8F023E436643360C092D68
:101EE00024DB520A7243801A7703460A6643360C93
:101EF00016235B1BDE40DF40BF1964466643821B2E
:101F00007046043506330100D940A840C01900D3FB
:101F10000131A24206D20023F0BD0000000000D033
:101F2000FFFFFFFF121B0130F3D3F1E709277F1BEF
:101F3000FE406446A2B27243801A00D20139220CDC
:101F40007243130C1204821A99410B007046043537
:101F500013370100F940A840801900D30131002B4C
:101F600002D1A2420AD2F0BD013000D30131121BCE
:101F7000FAD2013BF8D1A24200D2F0BD013000D329
:101F80000131121BF7E7F0B51C0C00D080E00CB457
:101F900000251C0A04D11B02160E33431202083519
:101FA0001C0B04D11B01160F3343120104359C0B8B
:101FB00004D19B00960F334392000235DC0B02D113
:101FC00092185B4101351C00971864410134464F5B
:101FD0007C66464C3C660E0CFFE7FFE7FFE7C04619
:101FE0003C6F6643360C7703BE4697B27743C01BFF
:101FF00000D20139C01B00D201399FB27743C91BFF
:10200000C91B170C77437E04FF0B801BB941CE0818
:102010006643360C0C2D33DBB644120B1F053A43D6
:102020001B0B97B27743C01B00D201399FB2774395
:10203000C91B170C77433E043F0C801BB941860D2A
:102040008F023E43664329277F1BFE400C3D7746A7
:10205000AF40BF1930BCA2B2ABB272437343801A17
:102060009941220C7243130C1204801A9941020008
:102070000B000137001BA941F9D2781E0021F0BDE9
:102080000C277F1BFE4077467F0BAF40FF19E0E730
:1020900000245D1C07D0144F7D663966FFE7FFE71B
:1020A000FFE7FFE73C6F95B29EB265436643401B76
:1020B000B141150C1E0C6543664336042F0C3E439C
:1020C0002D04401BB141994204D202000B002000B4
:1020D0000021F0BD01D19042F7D3801A994101341B
:1020E0009942F2D3F6E70000000000D0FFFFFFFFA7
:1020F00048404140484018B41B4B5B68FC46019384
:1021000008BD04DF6722001018B4174B1B68FC469B
:10211000019308BD00DF712200109446134A926FAC
:10212000920809D2624618B40F4BDB68FC46019353
:1021300008BD0CDF292500100C4AF0B5146E556E51
:10214000576F166F6246FFF7EEFF084A1466556632
:1021500057671667F0BD18B4034B9B68FC460193A4
:1021600008BD08DFCD23001090070020000000D03C
:1021700018B4044B5B6EFC46019308BD64DF59271D
:10218000001000009007002018B4044B5B6FFC4661
:10219000019308BD74DFD9260010000090070020CD
:1021A000132370B51D78012D15D010DD1C48FFF7E5
:1021B00015FD1C4C01008022200000F003FD022DC3
:1021C00006D01948FFF702FD184B186070BD154C7A
:1021D000174BA364F5E7164B124C23606360A360B2
:1021E000E36023616361A361E36123626362A362CD
:1021F000E36223636363A363E36323646364A364AD
:10220000E36423656365A365E36523666366A3668C
:10221000E36623676367A367E367A364D1E7C04608
:1022200053440000900700204C3300006C0A00204B
:102230003522001007B5604601880A0A0230DF2AFD
:10224000FAD1C9B2820804D302884088000410433E
:1022500000E00068014A5050039007BD900700203D
:102260000FB403BC0CBCF0B50124E407634000E0EC
:10227000F0B50C0DCF0F661E3605891B640503D320
:10228000C943404200D30131640D03D0661CF60AF5
:1022900007D0E41B00207F00791C89078912803C4D
:1022A00024031D0DDF0F6E1E36059B1B6D0503D32A
:1022B000DB43524200D301336D0D03D06E1CF60A8E
:1022C00007D0ED1B00227F007B1C9B079B12803DEB
:1022D0002D032F1B661B58D4A446202E46DA203728
:1022E0001400BC401D00BD40F24033412A43801819
:1022F0005941CB0F05D0C943C0430022644250412D
:10230000514162464D0D28D10D0D07D100281FD037
:10231000241940414941013A0D0DF9D0640006D31A
:10232000013000D30131002C01D140084000013AB6
:102330000BD4941CE40A04D112051144DB071944A0
:10234000F0BDD907204B194300E0D9070020F0BDAC
:102350000029DDD1002CDBD1F0BD0132C6074008D9
:10236000CD0728434908002EE1D0D9E73C2E29DAD1
:10237000203E40371400BC4000D00124F2401443FA
:102380001A00BB401C43D317ACE7AC46202F08DA39
:1023900020360400B4400D00B540F84039412843D0
:1023A000A5E73C2F0CDA203F40360400B44000D0B3
:1023B0000124F84004430800B1400C43C117EAE788
:1023C00010001900002494E70000F07FF0B50C0D18
:1023D000661E3605891BE60A6405640D02D0651C7D
:1023E000ED0A04D0002001210905803C2403A44605
:1023F0001C0D671E3F05DB1BE70A6405640D02D058
:10240000651CED0A04D0002201231B05803C240337
:102410007740644497B484B296B27443070C7E4309
:10242000150C6F4380B26843361802D301200004B4
:102430003F183004350C00197D41844688B29AB2A9
:1024400050430C0C62431F0C7C438EB27E439219A6
:1024500002D301263604A4191604170C3618674156
:1024600001BC81B29AB25143040C62431B0C5C4321
:1024700080B25843121802D301200004241810041B
:10248000130C401863412D185E410020474106BCE3
:1024900088B293B258430C0C6343120C544389B274
:1024A00051435B1802D301210904641819041A0C62
:1024B000091862416D1856410020474118BCF902C5
:1024C000720D1143F0026A0D1043ED020A0D03D1A3
:1024D0006D1940414941013B124E9B1B7600B342AE
:1024E0000ED26D0007D30130002671416646354398
:1024F00001D1400840001B05C918E4072144F0BD84
:102500000BDA013306D1013004D101314F0D01D076
:102510004908F2E7E1070020F0BD0136310500204F
:10252000EBE70000FF030000F0B51C0D671E3F0540
:10253000DB1BE70A6405640D02D0661CF60A04D0B2
:10254000002201231B05803C2403D0252D060026F4
:10255000F6432E661E096E66CE0FF619B446490084
:102560004F0D02D07E1CF60A03D000200021403F10
:102570003F033E1BB600B444013F7F05C91B490819
:102580002E6F013676089C02950D25437543ED1399
:102590007543AD1301356D10F603761B0CB4CC02F8
:1025A000450D2C43A2B2B3B25A43270C7B43350CE2
:1025B0006F43A4B26C431B1902D3012424043F19B6
:1025C0001C041D0CA4187D4124196D41009A91B280
:1025D000ACB26143170C7C432B0C5F4392B25A435D
:1025E000A41802D301221204BF182204230C52188B
:1025F0007B41019C6C431B19520ED9010A434401D3
:10260000A01A81B2B2B2514303145A43360C734339
:1026100087B27743D617D21900277E4136049B191B
:102620001704160C7F185E417316ED18F30100268F
:1026300080337541A90F06D16400690AE8055B0A79
:10264000184309D22FE00422944480337541A90A2B
:10265000A8059B0A184326D3404149412404009A07
:10266000019B0D005543641B4343E41A95B286B2A7
:102670007543170C7E43030C5F4392B25A43B6185E
:1026800002D301221204BF183204330C52197B41C9
:1026900052429C41002C02D400220130514140089A
:1026A000CA071043490802B06246D7079210084B88
:1026B000D218084B9A4203D212058918C919F0BDE5
:1026C0000020002A01DC3900F0BD01331905F5E7CF
:1026D000FD030000FE07000000220B150AD410B510
:1026E000944600F079F81414013400DA0021CB1775
:1026F000144C20470020002170476244343A0CD427
:102700000C2A07DA04009140904052422032D44013
:10271000214310BDD843D94310BD203207D40C4605
:102720009440524220321141D040204310BD080055
:10273000C917203203D452422032104110BD180074
:10274000190010BDFB26001000210A00002104E042
:1027500000210A00C11704E00022002306E0C04661
:102760000022CB1758405940C01A994130B5184C37
:10277000A21A002903D1010010D00020203A4C15E4
:1027800012D104D2013A001849414C0DFAD3114C30
:10279000A24204D212058918DB07C91830BDD24302
:1027A000520D00200021F5E703D4013A00184941F9
:1027B000FBD50B324405C00A4D052843C90A640005
:1027C00003D0002460416141E1E7E0D34408F8E729
:1027D00032040000FE0700000A0DCC0F531E1B053B
:1027E000C91A520503D3C943404200D30131520DE7
:1027F00003D0531CDB0A07D0121B00206400611CAD
:1028000089078912803A1203014BD21A70470000DF
:10281000FF03000051434343C9188C46110C83B297
:102820004B4310B4040C614392B280B250436243F4
:102830001C041B0C001910BC59411304120CC018C5
:1028400051416144704700004840414048400E4BB0
:102850005B6818470C4B1B6818470C4A936F9B0822
:1028600002D2094BDB681847F0B5146E556E576FEE
:10287000166FFFF7F6FF054A146655665767166729
:10288000F0BD014B9B68184790080020000000D065
:10289000491A002808D1084670470000C10FC9072F
:1028A00000D54042002817D0F44603B40B4B1B68F8
:1028B000984706BC81409E384042803107D20B06C3
:1028C00007D04900490AC00510430843604701305A
:1028D000F8E7490A8902F5E7704700006C0A002012
:1028E000014B5B6A1847000090080020014B1B6BEE
:1028F0001847000090080020054A10470029FBD027
:10290000044B5B6EFC46184764DF652B001000002B
:1029100091280010900800204100090E862902DA53
:10292000044B1B6C1847044900B500F0FFF802BCCB
:102930008E46F5E790080020DB0FC940132310B541
:1029400012481C78FFF74AF90100012C0AD003DD78
:1029500080220F4800F036F90E48FFF737F90E4B8A
:10296000186010BD0A4C5422200000F02BF90B4BCC
:102970006365A365E36523666366A366E366236711
:102980006367A367E3672362E361E5E753460000FB
:10299000900800204C3300006C0A0020392B0010F6
:1029A000420010B5031C0400120E11D07F3A0AD465
:1029B00017218A1A002A05DD01209040002B0ADB2E
:1029C0004042204010BD0020002BFBDA0348F9E70D
:1029D000C30FD807F6E7441EE418F1E7000080BFF4
:1029E000F8B5454657464E46DE46E0B5FF268846D2
:1029F000C50DC90D35401700041C0E40002A01D03A
:102A000000231360FF2D60D0002E5ED0002D5FD01C
:102A1000201CFF2E53D0731EAB4250DCE20F9446B5
:102A20008022120491466402640A144342464946D5
:102A30005202520A11438946AB4251D06346002BE1
:102A400058D000216442AD1B002D5CDD4B460120B7
:102A5000D9114042FFF714F91D23834600219C46FB
:102A60002A000C2D00DD0C2258466312944043438B
:102A70006046A246801A03414C46504691400133BD
:102A80005B105C435918041BAD1A002DE8DCA1450E
:102A900037DC4B46E41AA14546DCE41A02316300F8
:102AA0004B4519DC16D04346002B00DA4942002F73
:102AB00000D0396096212000891BFFF717FFF0BC7A
:102AC000BB46B246A946A046F8BDFF20C005F6E7C2
:102AD0000020F4E7CB07E6D54B460131E41AE2E7E4
:102AE0008C42ECDD6346002B13D14B002E000121FC
:102AF000E41AD8E7AD1B002DA8DC8C4211DA0021C6
:102B0000CDE7002CCBDA4B46E41808D54C4402390B
:102B1000C5E74B0001212E001C1B4942C3E70139C8
:102B2000BDE74B460021E41A0131B8E710B5002299
:102B3000FFF756FF10BDC04607B5604601880A0A78
:102B40000230DF2AFAD1C9B2820804D30288408851
:102B50000004104300E00068014A5050039007BD94
:102B600090080020002230B5002906D5CD07054386
:102B70004808013A10E0002230B505000D430FD09F
:102B8000CD170C16AC4205D1C901440E2143C0013A
:102B90000732F6E70500080052423D3201498847F6
:102BA00030BD0000EF29000001480421014B184707
:102BB00020020020ED1B0010014B1B68184700008D
:102BC00020020020014B5B68184700002002002013
:102BD000030010B5080011001B68984710BDC046DF
:102BE000F0B546464F46D646C0B5437D80460E00FA
:102BF0001700002B46D0002A3FDD4B1E9946244B80
:102C00000125002400209A460DE04B461B5D0D3B3C
:102C10005A425341325DDBB20A2A0BD02B000134F9
:102C200001359F421ADD002CEFD14346325D1B7DFA
:102C30000A2AF3D1002BF1D1A04204DA4346211A2B
:102C40001B6830189847434650461B680221984736
:102C5000013428002B0001359F42E4DC874204DD6B
:102C60004346391A1B6830189847F619013E3378E5
:102C70000D3B5A42534142461375E0BCBA46B14639
:102C8000A846F0BD0368110030009847F5E7C0463C
:102C90008C330010F0B5DE4657464E464546E0B54B
:102CA00085B017001C0006000D00FEF72FFA002368
:102CB000304A12184B41002B58DB2F4908008A4636
:102CC00000F006FB01906B1C03D1300000F0B6FA57
:102CD0000500002C25D1294B9846294B1C68002C57
:102CE00015D0002F20D1274F02E02469002C0ED0F0
:102CF0002368002BF9D03B68002B01D0A342F4D10C
:102D000020002A003100C0472469002CF0D1019B2B
:102D1000002B27D105B0F0BCBB46B246A946A04661
:102D2000F0BD194B9846D8E7164B994602ABDF1D0C
:102D30000A239B4602E02469002CE8D02368002B7C
:102D4000F9D04B461B68002B01D0A342F3D12A00D7
:102D500031002000C0475B460122390020003B7053
:102D6000C047E8E7504600F09BFAD3E70122074B43
:102D70005242A2E740420F0070060020E12B0010F3
:102D80003C0A0020400A0020D12B0010FFFFFF7FEB
:102D9000F0B5CE46474680B583B06B460600DD1DD4
:102DA0002870FEF7B3F900231A4A12184B41002B82
:102DB0002BDB19490800884600F08AFA174B814638
:102DC0001C68002C14D0164F02E02469002C0FD090
:102DD0002368002BF9D03B68002B01D0A342F4D12B
:102DE000200001222900FFF7FBFE2469002CEFD10F
:102DF0004B46002B05D1300003B0C0BCB946B046ED
:102E0000F0BD404600F04CFAF5E70122054B524276
:102E1000CFE7C04640420F00700600203C0A002069
:102E2000400A0020FFFFFF7F70B5040000F006FAA3
:102E300000230100050001222000FFF72BFF084BB3
:102E40001C68002C06D06368002B05D098472469C5
:102E5000002CF8D1280070BD2469002CF3D1F9E7CB
:102E60003C0A0020402310B50400437108220021D1
:102E70000730FFF7A1FE2000082200211030FFF7E5
:102E80009BFE012010BDC04604290BD80131C9B2F8
:102E90004118002B16D0012393401A008B7913435D
:102EA0008B710AE00132801801220539C9B28A40CB
:102EB000002B03D1C37B9343C3737047C37B13437E
:102EC000C373FAE7012393401A008B7993438B7104
:102ED000F3E7C04610B50400082200210730FFF7D1
:102EE0006BFE2000082200211030FFF765FE10BDA8
:102EF00030B50025040083B001790095821D0923B7
:102F0000006800F069F922002179092320680F3256
:102F1000009500F061F9217920681823002200F063
:102F200065F9217920680E230D2200F05FF963799D
:102F300021792068192200F059F901230C22217906
:102F4000206800F053F903B030BDC046F8B5DE4646
:102F500057464E4645468346E0B505200C00FEF731
:102F6000FFFC0600600821008019FEF789FE43007F
:102F700098468044070005214046FEF781FE3B1A33
:102F80009A46204B8146700080199C4234D81E49D5
:102F9000FEF776FE451C5B461C680023E36622684C
:102FA0000433534006221A4080235B0123431A60F6
:102FB0005346E3614B462362434601204F2B03D91E
:102FC00050214046FEF75CFEA0232200E050802303
:102FD000E06F7C3245402D045B0113432D0C1D60D6
:102FE000012339003000E366FEF74AFEF0BCBB4621
:102FF000B246A946A046F8BD0449FEF741FE451C6D
:10300000C9E7C0463F420F008096980040787D0196
:10301000104A70B5821A53425A41072352429A43CA
:103020000D4B10321A600D4B0D4C1A601500A36841
:103030009D432B1EFAD166240268FF340571D566C4
:103040001460633C8833FF3CD5639563D450FFF72D
:103050007DFF70BD3002002000E0004000F0004025
:1030600000C00040F0B557464E464546DE46904605
:103070000022E0B583B01E000CAB1B7884469A4654
:103080000368DA6601325960DA66002E4FDD514678
:103090004A40520201928022914632008025771EDA
:1030A0000020464610219046AD000024002804D19F
:1030B00062461479621E9441A40200229346B842EB
:1030C0001AD0325C22435C4622431A615A6B114289
:1030D000FCD04A469C58002C11D1B84222D0013075
:1030E0008045E2D1634652461A7103B0F0BCBB463C
:1030F000B246A946A046F0BD019A9346E1E75A6D53
:10310000012293465A6B2A42FCD01A6E5A46002A74
:10311000E5D0002C03D0E30701D42307E2D402203A
:103120004042DFE75246002AD9D1D346EAE70020E1
:10313000D8E7C046F0B5C6464368804600B59B0751
:1031400043D4234F380043460024186002263B0036
:10315000204D834208D001341E2C0FD02B00264274
:10316000F7D13B008342F6D12000FDF7CDF90328CB
:1031700021D04346013418681E2CEFD1434619690B
:10318000FFF746FF434603215868FDF7A5F943467C
:10319000002258680121FDF7C1F9434603219868D0
:1031A000FDF79AF94346002201219868FDF7B6F928
:1031B00080BCB846F0BD200000220021FDF7AEF92A
:1031C0001F212000FDF788F9D3E70248004FBAE736
:1031D000300200203802002010B582B004AC247800
:1031E00000680094FFF73EFF02B010BD10B584B038
:1031F0006C46637300232273006803AA00930233B2
:10320000FFF730FF04B010BD094B10B51C68094A28
:10321000A83420686168084BFFF7FCFA01220023FC
:1032200080185941206061604800400810BDC046C8
:10323000400200202D7F954C2DF4515810B5830786
:103240000AD00300032102E001330B4205D01A78B3
:10325000002AF9D1181A10BD030019680C4A0D4C48
:103260008A188A4322420FD15968094A04338A18BE
:103270008A43224208D15968054A04338A188A438E
:103280002242F1D000E001331A78002AFBD1E1E7B5
:10329000FFFEFEFE80808080F8B5C0460000000082
:1032A00001B40248844601BC604700BF5D010020B4
:1032B00001B40248844601BC604700BF850100207C
:1032C00001B40248844601BC604700BF850100206C
:1032D00001B40248844601BC604700BFC100002021
:1032E000486172647761726520616C61726D20253E
:1032F0006420616C726561647920636C61696D65DD
:10330000640000000A2A2A2A2050414E4943202AFC
:103310002A2A0A000A00000048617264206173735F
:103320006572740052656C6561736500626F6F74DD
:10333000325F77323571303830000000312E352E53
:10334000310000007069636F00000000646F746DED
:1033500061747269785F6579657300004A756C20E5
:10336000313120323032330006005250BBFF3CB6C0
:103370004433001006005250E182887F2C33001045
:1033800006005250D3F07542243300100D0A00009D
:10339000AC020010A002001094020010683300106C
:0C33A0008802001074330010803300100D
:1033AC00F0B5C646150000B504001E000268EFF328
:1033BC00108172B61368002BFCD0BFF35F8F04230F
:1033CC00E356002B2DDB2268BFF35F8F00201060CB
:1033DC0081F31088D0221206127852B290469A428B
:1033EC0003D1002080BCB846F0BD00270BE0236859
:1033FC00BFF35F8F1F6081F310882800310000F04D
:10340C0033F80028EDD12268EFF3108172B61368FF
:10341C00002BFCD0BFF35F8F23797F2BE7D943467A
:10342C0002E0D0231B061B6823712368BFF35F8F58
:10343C0000221A6081F310880120D3E70268EFF3B1
:10344C00108172B61368002BFCD0BFF35F8FFF2383
:10345C0003710368BFF35F8F00221A6081F3108839
:10346C0040BF70477047C04601B40248844601BC57
:10347C00604700BF650F0010100000000000000046
:10348C00000001000000000000000000000002002D
:10349C00000000000000000000000300000000001D
:1034AC00000000000000FF000000000001B54868AB
:1034BC0001318E460047704609380149884701BDE5
:1034CC0049080010FC0100200000000090060020BC
:1034DC00E40900200000000000000000F4090020B6
:1034EC0000000000000000001000000000000000C0
:1034FC00503300004C3300005433000052330000B2
:10350C004D5300004D430000533400004334000081
:10351C000040044000000000008004400000000057
:10352C0048020020000000000000000034050020CC
:10353C009C05002004060020000000000000000094
:10354C00000000000000000000000000000000006F
:10355C00000000000000000000000000000000005F
:10356C00000000000000000000000000000000004F
:10357C00000000000000000000000000000000003F
:10358C00000000000000000000000000000000002F
:10359C00000000000000000000000000000000001F
:1035AC00000000000000000000000000000000000F
:1035BC0000000000000000000000000000000000FF
:1035CC0000000000000000000000000000000000EF
:1035DC0001000000000000000E33CDAB34126DE68C
:1035EC00ECDE05000B0000000000000000000000F5
:1035FC0000000000000000000000000000000000BF
:10360C0000000000000000000000000000000000AE
:10361C00000000000000000000000000000000009E
:10362C00000000000000000000000000000000008E
:10395C000000000000000000A92B0010BD1B00108F
:10396C00A12100103D290010E50200108D0400106B
:04000005100001E9FD
:00000001FF
