:020000041000EA
:1000000000B5324B212058609868022188439860DF
:10001000D860186158612E4B002199600221596106
:100020000121F02299502B49196001219960352056
:1000300000F044F80222904214D00621196600F024
:1000400034F8196E01211966002018661A6600F04E
:100050002CF8196E196E196E052000F02FF8012189
:100060000842F9D1002199601B49196000215960AB
:100070001A491B48016001219960EB211966A021F2
:10008000196600F012F800219960164914480160C1
:100090000121996001BC002800D000471248134993
:1000A000086003C880F30888084703B5996A0420EC
:1000B0000142FBD001200142F8D103BD02B5186610
:1000C0001866FFF7F2FF186E186E02BD00000240BE
:1000D000000000180000070000035F00212200005C
:1000E000F4000018222000A00001001008ED00E03C
:1000F00000000000000000000000000074B24E7A12
:1001000000200420F7010010C3010010C5010010F9
:10011000C1010010C1010010C1010010C101001097
:10012000C1010010C1010010C1010010C701001081
:10013000C1010010C1010010C9010010CB01001065
:10014000CD010010CD010010CD010010CD01001037
:10015000CD010010CD010010CD010010CD01001027
:10016000CD010010CD010010CD010010CD01001017
:10017000CD010010CD010010CD010010CD01001007
:10018000CD010010CD010010CD010010CD010010F7
:10019000CD010010CD010010CD010010CD010010E7
:1001A000CD010010CD010010CD010010CD010010D7
:1001B000CD010010CD010010CD010010CD010010C7
:1001C00000BE00BE00BE00BE00BE00BEEFF3058054
:1001D000103800BEF2EB887158F4011080F4011061
:1001E0003402001090A31AE700201F49086006C8D7
:1001F00081F3088810471D48006800282FD10DA4FE
:100200000ECC002902D000F012F8F9E71849194A7B
:10021000002000E001C19142FCD1174988471749ED
:1002200088471749884700BEFDE701C901C29A42C5
:10023000FBD3704780F40110C00000208C28002000
:100240004C1C021000000420000004204C1C021072
:10025000001004200010042000000000704709482E
:1002600003F08CFC0047000008ED00E0000000D027
:1002700090280020BC5E00202524001025040010DA
:10028000592500105756000006005250ABB360537A
:100290009050011006005250861C0302A05001101D
:1002A000060052505422A29DA85001100500525041
:1002B000DE65F4684C1C0210F8B5C04610B5064C5B
:1002C0002378002B07D1054B002B02D0044800E017
:1002D00000BF0123237010BDC82B002000000000C8
:1002E000104D0110044B10B5002B03D003490448F6
:1002F00000E000BF10BDC04600000000CC2B002075
:10030000104D01101021F0B51248134A134D144F2F
:100310009369194210D193691942FCD1146803788A
:10032000002BF5D12B683E2BF2D82B685E1C2E607B
:10033000FC5493691942EED00378DAB2002B08D14D
:10034000064B19683E2904D91B680549CA54012384
:100350000370F0BDB65E0020004003400C32002068
:10036000CC31002010B5FFF7CDFF10BDF0B589B03E
:1003700001A8002108F0EAFE204C079A204B626297
:10038000F022636000231F4F03980499029E069D8C
:100390002760019F52042381E06121622000A26254
:1003A000A3850121E7606661A56108F0FFFBA188D4
:1003B0000023E28814480AF0F3F900200021134BCF
:1003C0001860596000200F21114B186059600020FF
:1003D0001E21104B1860596000202D210E4B186013
:1003E0005960052019210D4B186059602D203721C7
:1003F0000B4B1860596009B0F0BDC046485E002044
:10040000A000500058CD0110C432002098290020CF
:10041000C0290020B0290020B8290020A0290020F0
:10042000A8290020F0B5DE4657464E464546E0B5C1
:10043000B1B005F02BFDE121EA4C4902200001F0AA
:1004400007FD0221012000F081FA00220121012094
:1004500000F094FA5023A363626B183B1340E24A06
:1004600014201360E14900F07BFB0121142000F00F
:100470003FFBDF4FFF23FF22FF21380009F0E4FAA2
:1004800000230022FF21380009F0DEFA00230400D7
:1004900000220021380009F0D7FAFF25284001008A
:1004A0000590380009F05EFA002200230A920B93AF
:1004B000A0225023254038000AA90C920D9308F081
:1004C00037FF29003800069509F04CFA062300266C
:1004D000012500242A93C74B38002B93C64BC74AEB
:1004E00000932AA90A2303960295019408F056FF67
:1004F00004232A93C24B38002B93C24BC24A009369
:100500002AA90A2303960295019408F047FFBF48E1
:10051000390008F0DFFAFA20000101F0BFF83800D6
:10052000059909F01FFA002400230E930F94A023CD
:10053000502438000EA91093119408F0F9FE3800E9
:10054000069909F00FFAB24B1B78002BE7D014ABD9
:1005500012933F2300222AA912A82A930BF0C2FC6F
:100560002A9B3F22AB491493129005F065FA129A28
:100570002A9B0792002207991393CA54A64B139CF7
:100580001A68A64B1B68A24200D9CFE11AA918919C
:100590001299A41A07918D189C4200D91C00002DB5
:1005A00000D198E12A940F2C00D957E1012C00D0FA
:1005B000B6E158212B7804AA521813701AAA002306
:1005C00019941355964B139C1A68964B1B68A242BC
:1005D00000D9ABE120A91E911299A41A07918D1898
:1005E0009C4200D91C00002D00D178E12A940F2CE8
:1005F00000D942E1012C00D08CE170212B7804AAB3
:100600005218137020AA00231F941355864B139C75
:100610001A68864B1B68A24200D987E126A924915B
:100620001299A41A07918D189C4200D91C00002D24
:1006300000D15AE12A940F2C00D92DE1012C00D0D1
:1006400062E188212B7804AA5218137026AA00238D
:1006500025941355764B139E1A68764B1B68B2424D
:1006600000D968E12CA92A911299B61A07918D1820
:100670009E4200D91E00002D00D13AE108960F2EAF
:1006800000D918E1012E00D037E1A0212B7804AA6F
:10069000521813702CAB08AC00252B969D55189E54
:1006A000654B30001E60654B9B461E9B07935B4667
:1006B000079A1A60624B9A46249B07935346079AFF
:1006C0001A60604B98462A9B07934346079A1A6024
:1006D00013F078FC0123666080262060994602931F
:1006E0000023F60521003800574A0193039514238F
:1006F000009608F053FE5A4612689346100013F015
:1007000061FC5A46002362604A462060210038009E
:10071000029201934D4A14230395009608F03EFE81
:10072000524612689246100013F04CFC52460023C9
:1007300062604A4620602100380002920193444AD8
:1007400014230395009608F029FE4246126892464B
:10075000100013F037FC5246002362604A462060C6
:1007600021003800029201933A4A1423039500961F
:1007700008F014FEFA20384B40001D60244B1D7019
:1007800000F08CFF2148390008F0A4F92A982CAB1E
:10079000984204D02C9B591C079305F05FF92498CC
:1007A00026AB984203D02699013105F057F91E98DF
:1007B00020AB984203D02099013105F04FF91898E9
:1007C0001AAB984203D01A99013105F047F91298F3
:1007D00014AB984200D1A2E6149B591C079305F074
:1007E0003DF99CE60040034034500340650300108F
:1007F000C4320020104D01100000A040A0290020AC
:10080000184D011000004040A8290020485E00203B
:10081000B65E0020CC310020C4300020181F00201C
:100820001C1F0020201F0020081F00200C1F00207C
:10083000101F0020141F0020C8300020905E0020F0
:10084000E42B0020E82B002098290020C02900205C
:10085000B0290020B82900200C32002000222AA94B
:1008600018A80BF03FFB2A9B18901A93220029002E
:1008700005F0E2F82A9C189AA1E600222AA91EA8EF
:100880000BF030FB2A9B1E9020932200290005F0DC
:10089000D3F82A9C1E9AB6E600222AA924A80BF0B7
:1008A00021FB2A9B249026932200290005F0C4F8FE
:1008B0002A9C249ACBE608AC002221002AA80BF03F
:1008C00011FB089B2A902C933200290005F0B4F804
:1008D000089E2A9BE0E6002C04D11AAA6FE6002CA1
:1008E00000D18FE616480BF0AFF9002C00D1ADE631
:1008F000F8E7002E00D1CDE6F4E72CAB08AC002ED3
:1009000000D1C9E61800DFE726AA002C00D19EE638
:100910001000C9E720AA002C00D174E61000B4E74B
:100920001AAA002C00D14AE610009FE723000549CF
:1009300005480BF0B9F93300024903480BF0B4F94C
:10094000704D0110204D0110384D0110094A8300EF
:1009500094464022634410B51C68C0006240C02425
:1009600014408022520113431C60034B9C46604498
:10097000416010BD04C00140004001400A4B8000AE
:100980009C4604236044002901D00C230821002A3E
:1009900000D10B00026853400C221A4080235B01F7
:1009A000184302607047C04604C00140024B1868FB
:1009B0008007C00F7047C04600C0064070B5EFF317
:1009C000108C72B60D4D2B68002BFCD0BFF35F8FDF
:1009D0000724CB08C618C05C01230C40A3401C00B0
:1009E0000440034207D103433370BFF35F8F2C6091
:1009F0008CF3108870BD100001F0B2FD2C0100D006
:100A0000F8B54746CE46884680B5EFF3108C72B6EF
:100A1000214D2C68002CFCD0BFF35F8F9A422CD85C
:100A2000D4080727055D061901241740BC402C4255
:100A30001FD007210127894609E0D408055D061962
:100A40004C4639001440A1400C00294211D001321B
:100A50009342F2D201204042BFF35F8F00220E4B3F
:100A60001A608CF3108800280FDBC0BCB946B04672
:100A7000F8BD2C4310003470EEE7BFF35F8F002306
:100A80002B608CF31088012040424346002BECD0B1
:100A9000089801F065FDC0462C0100D00021044BF0
:100AA000044ABFF35F8F02C39342FAD17047C04636
:100AB000000100D0800100D0044A1078431CDBB252
:100AC000172B00D9102313707047C046241F002035
:100AD00000B5054B83B00100009318221F23034883
:100AE000FFF78EFF03B000BD9C4D011020320020A7
:100AF00001238340002904D0034A1360034A136092
:100B00007047034A1360FBE780E200E000E100E089
:100B100080E100E001238340014A13607047C04632
:100B200000E200E0084B10309B688000C358002BA7
:100B300007D0064A00209B1A2F229A424041C0B299
:100B400070470020FCE7C04600ED00E0281F0020B1
:100B5000024B10309B688000C058704700ED00E0E9
:100B600070B50D00EFF3108672B60F4A1368002BB4
:100B7000FCD0BFF35F8F0D4B10309B6884001B5976
:100B80000B4A934203D09D4201D001F001FD074B77
:100B90009B681D51BFF35F8FBFF35F8F0022024B35
:100BA0001A6086F3108870BD240100D000ED00E0CB
:100BB000CD010010F0B557464E46DE464546E0B53D
:100BC00085B0060002911700EFF3108B72B6674AEA
:100BD0001368002BFCD0BFF35F8F0025644B5D577B
:100BE0009A46002D00DAA4E06B00624C03935B1977
:100BF0009B009846A146C1444B4652469B7910360D
:100C000013705D4BB2009B68019299580B1B2F2B00
:100C100034D95A4B994200D0A4E0039B584A9C46D1
:100C2000584B6544AD006353434602336519E418DD
:100C3000554B0121043B1B1B1B055B0D13436B80B4
:100C4000524BEF71AB80FF23AB71029BAB604B4605
:100C50000B431900484B019A9B689950BFF35F8F73
:100C6000BFF35F8F0022414B1A608BF3108805B0F1
:100C7000F0BCBB46B246A946A046F0BD01200A0022
:100C80008243D379BB422FD845464E461300404994
:100C90001B1B5B415943090D3A4B63533A4B0235D9
:100CA0006519043B5B1B1B05354D5B0D2B437380A6
:100CB0000426B446E0444444131F1B1B4C46A17158
:100CC00002991B05A16049465B0D2B43A380314B64
:100CD000E77101431360BDE75800C0188000201879
:100CE000C679BE422BD902000623D356002BF3DA75
:100CF000101D82462848804604267642B446E144C8
:100D000050464E46361A3005400D824656461C481F
:100D1000957106439680039A944665441D4AAD003A
:100D2000641922604246A371029BA280E771A3600E
:100D300090E701F02DFC002553465D5754E7101D48
:100D4000824690884005001584464046D444664655
:100D500004302018301AE0260005400D36023043DA
:100D60008046C9E701F014FC57E7C046240100D0D3
:100D7000B25E0020281F002000ED00E0CD01001031
:100D800000E0FFFF00A1FFFF581F002001BDFFFF93
:100D9000AAAA00000148804701BD0000F0B5DE4668
:100DA00057464E464546E0B50C0083B0EFF3108938
:100DB00072B6584A1368002BFCD0BFF35F8F564BB6
:100DC0009A68030010339F00D559544A90469542C3
:100DD00032D0A54243D0524EAA1B2F2A2CD8012232
:100DE0008240924651464F4A126811400191514645
:100DF0004D4A1160BFF35F8FEFF305829346002ADF
:100E000033D101232A009A4393689C4208D177E0AA
:100E10004B005B189B00F3189968A1422AD01A0076
:100E2000062151560029F3DA019B002B19D05246B6
:100E30003E4B1A603B4B1A60374B9B68DD51BFF34A
:100E40005F8FBFF35F8F0022324B1A6089F31088E7
:100E500003B0F0BCBB46B246A946A046F0BD1500A3
:100E6000EAE75246304B1A60E6E79342C9D001F0F8
:100E70008FFBC6E706215956002921DB4A0050188E
:100E8000800034188046A0689860E079D871062008
:100E900020569871002824DBA488F01A64052415D4
:100EA00044440019E0240005400D240220439880AA
:100EB00052181F4B9200B6181A781970B271B3E726
:100EC000594600290FD1FF3191711A499180184973
:100ED0000A789A71184A9B1B5B415A43120D0A709B
:100EE000A2E71648E3E7164A1649D21A083A500212
:100EF000400D01439980144952080A43DA8093E770
:100F00000621515613000029B8DA5A46002AEAD1C0
:100F10004546DCE7240100D000ED00E0CD010010E3
:100F2000281F002000E100E080E100E080E200E016
:100F3000B25E002001BDFFFFAAAA000001BD0000B3
:100F4000621F002000F0FFFF00F8FFFF70B5EFF315
:100F5000058101240443EFF3108C72B6214A136813
:100F6000002BFCD0BFF35F8F1F4B05001F4AED1A0B
:100F70006D416A43120D1E4D8900AE6852B276581B
:100F8000A6421CD00621595691421CD01221595616
:100F9000914222D01E215956914220D02A215956E1
:100FA0000324914210D0134B19781A708171BFF34A
:100FB0005F8F00220B4B1A608CF3108870BDAB68FA
:100FC0000D4C5C50EFE700246100091989005B18A3
:100FD000FF21997109499980E5E70124F4E702248A
:100FE000F2E7C046240100D0281F0020AAAA000072
:100FF00000ED00E0B25E0020CD01001001BDFFFF5A
:10100000054B064A1360064A136053609360D36031
:1010100013615361936170478080808000E400E039
:1010200004E400E000B5074B83B001000093002208
:1010300005230548FFF7E4FC002801DB1F23181AED
:1010400003B000BDB84D0110B85E0020024B9C46B5
:1010500061448900016070474000003410B504000D
:10106000FFF72AFD01002000FFF7F0FFFF232371A7
:10107000BFF35F8F10BDC04610B50400FFF71CFD25
:1010800001002000FFF7E2FFFF23A380BFF35F8F83
:1010900010BDC04610B504000120FFF719FD044B38
:1010A0009C46604480002060BFF35F8F10BDC04647
:1010B00040000034034B9C46614489000160BFF34B
:1010C0005F8F70474000003483680B4810B584463A
:1010D00061446244090112019A18591854684B6816
:1010E00001209C4201D802D00020C0B210BD12687D
:1010F0000B689A42F9D8F7E7FFFFFF0F0A4B196810
:10110000EFF3108072B60A68002AFCD0BFF35F8F3D
:101110001B68BFF35F8F00221A6080F3108840BF06
:10112000002000217047C046445E0020F8B55746B5
:101130004E464546DE46E0B599460CAB1C780DABF5
:101140001B78060090469A460768002C11D1BC7B9C
:10115000002C42D065003B682D19033D59194B788E
:10116000BB73002B00D1FB7300238B704B700B7093
:1011700004E065003B682D19033D5919B2682A4BFC
:1011800094464246E3181B0163441A604A465A607B
:101190000A9A9A600B9ADA6000238B704B700B707E
:1011A0007B7B9B46002B2BD022005946B8687B687E
:1011B00098473A68002816D05B4658465B005B4467
:1011C0005519033BA870D118D35C002B00D06B706D
:1011D0005B460C707B73A34513D0F0BCBB46B24694
:1011E000A946A046F8BD5B465B005B44033BD318B1
:1011F0009C705119525D002A00D05A705B460B70EA
:101200007C7342464B46307D00F0C0FB051E06D085
:101210005346002B03D12100306800F0DBFD0E9B0C
:10122000002BDAD01D70D8E7FFFFFF0FF0B5DE46C8
:1012300057464E4645460023E0B58BB00893674BB2
:101240008200D45800239B46099000F015FB626889
:1012500006000F00EFF3108572B61368002BFCD068
:10126000BFF35F8F23689C465B7B9946002B00D1C0
:1012700069E0A2685A4B90464B441B019844434690
:101280001A685B6810001900801BB941002900DC56
:1012900063E0099800F07AFB0023002298460023BF
:1012A0000692079300239A466368BFF35F8F5A46FE
:1012B0001A6085F310885346002B08D10028C4D14A
:1012C0000BB0F0BCBB46B246A946A046F0BD089B99
:1012D000414618024B461843D047626806000F008B
:1012E000EFF3108572B61368002BFCD0BFF35F8F4D
:1012F000002F50DB33003B4302D02369002B61D128
:101300002368D97B002907D04A00521819688C46F7
:1013100049466244033A51709A7B002A01D14A46F9
:101320009A734A46DA734B46E168013BCA5C013264
:10133000CA545B4623616368BFF35F8F5A461A60E5
:1013400085F3108881E70023002298460023069247
:101350000793002300209A46A6E7002902D100281F
:1013600000D096E70021604600F0B2FC43461A68C0
:101370005B680692079343469B689A464346DB6840
:101380009846E3684B44013B1B7808931B020343D8
:101390002361002088E72369002BB1D0069A079BC0
:1013A000921BBB41002B15DB59460491012103918F
:1013B0004946029141460191514620000091FFF7B4
:1013C000B5FEB6E700F058FA32003B0012184B4168
:1013D000002BE9DA0122034B5242E5E7285E0020A8
:1013E000FFFFFF0FFFFFFF7F10B5144C6368002B5A
:1013F00004D00A211248FFF729FE10BD2300114A2C
:101400001021206800F07EFB032000F029FA032061
:1014100000F026FB03200C4900F072FAFFF74CFBAA
:101420000A4B9C4603232375D0231B061B6860448C
:101430006375074B80006060DC60DAE7701F002096
:10144000445E0020C91000102D120010400000342E
:10145000285E002000487047701F0020F0B54E46FF
:101460004546DE465746E0B585B0019310AB1B7884
:101470000600039300239946984600927268EFF3A2
:10148000108B72B61368002BFCD0BFF35F8F3568EA
:10149000AC7B002C3DD067002B683F19033FDB1964
:1014A0005A78AA73002A00D1EA73B168474A8C4679
:1014B00000980199A21812016244106051600E99BF
:1014C00091600F99D16042469A705A701A706B7B86
:1014D0009A46002B67D022001900A8686B689847CD
:1014E0002A68002852D0534650465B005344D7190F
:1014F000033BB870D118D35C002B00D07B705346EF
:101500000C706B7354454FD0F3681B19013B18786E
:1015100000E000207368BFF35F8F42461A608BF3D0
:101520001088002C4FD04B46002B08D100022043DE
:1015300005B0F0BCBB46B246A946A046F0BD039B31
:10154000002B3ED00E9B00200F999847030004000B
:101550000D000B4335D000290ADA009A019B121BBB
:10156000AB4100920193002B0ADB039B994685E770
:1015700000F082F924184D4100940195002DF4DA11
:101580000123134C5B4200930194EEE753465B004A
:101590005344033BD3189C70D119D25D002A00D06C
:1015A0005A7053460B706C73307D009A019B00F0AB
:1015B000EDF981460028A7D02100306800F00AFC30
:1015C000A2E70020B4E701204042B1E7FFFFFF0F90
:1015D000FFFFFF7F407D7047F0B504000D00062639
:1015E0007642F717C64636196F4100B584B08F4270
:1015F00014D811D000F040F932003B00121A8B4190
:10160000002B15DC002B3ED02000290000F068F9EB
:1016100004B080BCB846F0BD8642EBD90026002756
:1016200000F02AF932003B00121A8B41002BE9DD51
:10163000002302930193154B3200009314483B00A2
:10164000FFF70CFF0028DFDB00239846BC46114A59
:10165000114F7B6A9C4504D8B96A8E42D4D99C4507
:10166000D2D11168EFF3108072B60B68002BFCD05A
:10167000BFF35F8F1368BFF35F8F4146196080F33C
:10168000108820BFE5E7002ABED0D1E7FD1000108A
:10169000701F0020445E00200040054070B5060029
:1016A00000F0EAF8FA2204000D00002330000021C7
:1016B000920003F067FE00196941002902DBFFF781
:1016C0008BFF70BD012001494042F8E7FFFFFF7F1B
:1016D000F0B5EFF30583CE46474680B505000C0014
:1016E00085B0002B12D02C4A0020536A9C4203D8AC
:1016F000926A0130AA4204D305B0C0BCB946B046D4
:10170000F0BDE01A421E9041C0B2F5E7234E0293AD
:101710000193234B0200009330000B00FFF79EFE65
:10172000031EE0DD20BF7168EFF3108772B60A6810
:10173000002AFCD0BFF35F8FDAB294463068427B58
:1017400062451DD0FF221A4051008946016891442C
:1017500088464946414403398978002913D0F16805
:101760001B0A88464244013A1278DBB29A420FD0F3
:101770007368BFF35F8F00221A6087F31088B2E7A7
:10178000FF221A40EBE732699342F1D13161EFE772
:10179000614600F01FFBEBE700400540701F002092
:1017A000FD100010F0B5EFF30582D6464F464646D1
:1017B0001000C0B51038EFF3108872B6214C2368C2
:1017C000002BFCD0BFF35F8F0123190081401E4D19
:1017D0001F006963AA461D4D29601D4D2E78AC4639
:1017E0003500C5402F402B4209D1BFF35F8F2760E2
:1017F00088F31088E0BCBA46B146A846F0BD53460F
:10180000144D5F6A83005D59AF420ED3124A8E4376
:101810009B5862461670BFF35F8F0022226088F3E8
:101820001088002BE6D09847E4E70C4B92009C46CA
:10183000624413681360BFF35F8F0023236088F353
:101840001088D7E7280100D0004005403C700540D3
:10185000B75E0020805E0020B4300020D03F0540FD
:1018600010B50100024A0348FFF7A8F810BDC046B2
:10187000E04D0110B15E0020034B596A0A00986ADE
:10188000596A8A42FAD170470040054070B5040099
:101890000D00124A536A1900966A536A8B42FAD1B4
:1018A0003000190024184D41AB4211D80ED02B0046
:1018B0000A494A6A9A42FCD307D1084A02E0516AAF
:1018C000994202D1916AA142F9D370BDA642EED9E4
:1018D000012301246442E5175B42E9E7004005402B
:1018E000064A536A9942FCD807D1044B02E05A6A6F
:1018F000914202D19A6A8242F9D370470040054072
:1019000070B504000D00EFF3108672B61A4A136822
:10191000002BFCD0BFF35F8F002D1BD02000FFF702
:1019200017F9164981420AD02000FFF719F9012161
:101930002000FFF7DDF80123A340114A1360114B8B
:10194000A400E550BFF35F8F00220B4B1A6086F3B3
:10195000108870BD0B4BA200D5500122A2400A494D
:1019600020000B7893430B700449FFF717FA00210E
:101970002000FFF7BDF8E5E7280100D0A51700100B
:1019800038600540B4300020B75E0020F0B54F4607
:10199000D6464646C0B507002C4C616A0D00A66AC3
:1019A000616AA942FAD18B4208D805D00120E0BC77
:1019B000BA46B146A846F0BDB242F7D9EFF3108A55
:1019C00072B6234801680029FCD0BFF35F8F012560
:1019D000BD4020491D4C8846097889462943C9B233
:1019E0008C46414660460870391D1B488900656376
:1019F0000A51B9000B50216A0020294219D0616AAE
:101A00000800A66A616A8142FAD18B4219D801D1D5
:101A1000B24216D8CC4516D00C4B1F201D625D6318
:101A200001230740BB400D4A1E38136043464A4617
:101A30001A70BFF35F8F0022054B1A608AF310887B
:101A4000B5E70020F5E70120F3E7C0460040054078
:101A5000280100D0B75E0020805E002080E200E018
:101A6000EFF3108C72B60A490B68002BFCD0BFF361
:101A70005F8F01238340074A0748136202789A4325
:101A80000270BFF35F8F00230B608CF310887047E8
:101A9000280100D000400540B75E002070B5050069
:101AA00014001600002915D00C00002A12D08068FE
:101AB0006B689847296800280ED073009B19620054
:101AC000033B1219CB18033A9C7088188A5C002AD1
:101AD00015D10670200070BD63001B197200033B16
:101AE0009219CB18033A9E7088188A5C002A02D19A
:101AF00004703400EEE75A7004703400EAE75A705C
:101B00000670E7E730B583600023CCB2437301333E
:101B1000047342608373C4730D000068012C06D9FE
:101B2000421C0133DBB2137003329C42F9D1FF2116
:101B300029404B005918002340180338437030BD2A
:101B4000F8B5CE46474606000C0080B5002907D000
:101B50004D0003686D18033D5A195778002F04D1C2
:101B60002000C0BCB946B046F8BD7900C919033998
:101B700088464344597889460021597051707368EA
:101B80003A002100806898473368002814D0424604
:101B90009A18947059195B5D002B00D053700F7028
:101BA000270049463000FFF7CBFF39000200300024
:101BB000FFF774FF0400D3E7424641465D19AF705A
:101BC0009A185B5C002B00D06B701470E9E7C0467C
:101BD000F0B557464546DE464E46E0B50D006B0073
:101BE00001685B19DF1E0400C85D83B00192CA1949
:101BF000002850D043001B18033BCB185E78B44636
:101C0000002E1AD1019E002E42D0E67B002E04D079
:101C100073009B19CB18033B5D70A37B002B00D195
:101C2000A573E57300282FD10023537003B0F0BCD7
:101C3000BB46B246A946A046F0BD72006244033AD4
:101C400089184A78904600224A7091465A700100DD
:101C500032002000FFF722FF43468246002B07D0C8
:101C60005B0021684344033BCB185A78002A16D105
:101C7000424651462000FFF711FF2168019BCA1917
:101C8000002BC2D10028CFD043001B18033BCB1838
:101C900000219970C8E7019B002BB6D1C4E7500022
:101CA00080180338091848788346484648705870A9
:101CB00041462000FFF7F2FE594680462000FFF71C
:101CC0003FFF414602002000FFF7E8FE8046CFE7D5
:101CD000F0B557464546DE464E46E0B583B0019125
:101CE000457B04006B0000685B19DF1EC15DC219F3
:101CF000002952D04B005B18033BC3185E78B446F2
:101D0000002E1CD1019E002E44D0E67B002E04D074
:101D100073009B19C318033B5D70A37B002B00D19C
:101D2000A573E573002931D1002328005370617336
:101D300003B0F0BCBB46B246A946A046F0BD720057
:101D40006244033A801842789046002242709146DD
:101D50005A7020003200FFF7A1FE43468246002B56
:101D600007D05B0021684344033BCB185A78002A14
:101D700017D1424651462000FFF790FE019B01001B
:101D80002068C219002BC0D10029CDD04B005B18B0
:101D9000033BC31800209870C6E7019B002BB4D109
:101DA000C2E750008018033809184878834648462F
:101DB0004870587041462000FFF770FE5946804633
:101DC0002000FFF7BDFE414602002000FFF766FE3F
:101DD0008046CEE770B5040000292CD0437B8B42AF
:101DE0002ED0056848004018033828188278002A49
:101DF00021D053009B18033BEA5CEE188A4202D1C3
:101E00001BE0002A08D053009B18033BEB185A78BC
:101E10008A42F6D142785A700023012283704370BF
:101E20002000FFF7D5FE617B02002000FFF736FEA1
:101E30006073012000E0002070BD43783370EBE751
:101E400001221900FFF7C4FE60730120F4E7C046C9
:101E5000F8B5CE464746040080B506200E0000F0D7
:101E600023FA051E51D0524B5249E21853425A41AF
:101E70008023DB039C4692054F4B62441A604F4B14
:101E80001A6010008B689843FBD1494B8021E318FE
:101E90005A4253414A4A5B0049009952062000F0D9
:101EA00003FA3100C00001F0C3FEC30932D1402261
:101EB000012190466162A362256BEB0736D42700AF
:101EC0008026E36A00232C3776013E4333600620E8
:101ED000256300F0E9F94146800001F0A9FE236B7B
:101EE00005009846DB073BD46022E36A5A406E2324
:101EF0001340336043462363802310229B013B43FE
:101F00001A60304B23630323A3642800C0BCB94686
:101F1000B046F8BD2C4A93423FD900232B492C4AA6
:101F20006162A362256B9046EB07C8D52200C023EF
:101F300030329B011343234A06201A60666AA26A64
:101F4000B601B61800F0B0F9224901F071FEB602F0
:101F50000100300001F06CFE0021FFF797FCAEE7B6
:101F60002200C02330329B011343164A06201A6018
:101F7000636AA26A9B019946914400F095F94B4629
:101F800014499B02994601F053FE0100484601F0B6
:101F90004FFE0021FFF77AFCA6E77F2299018846D1
:101FA00010400130400819008044030082E7C04619
:101FB0000080FCBF00C0004000E0004000F0004096
:101FC000945E002001030000FEFF0000FFFF000000
:101FD000C0FF3F004E0E000030B50C2083B000F073
:101FE000B9F9FEF7E3FC00280ED0994B994A1A6024
:101FF0005A609A60DA601A615A619A61DA611A620B
:10200000954A5A6203B030BD944CA06700F0F6F9CF
:102010000122934B1A60636C012BFCD10322914B7C
:102020001A608E4A936B012BFCD1013301218E4A39
:102030008E480093043300F03DF905238C4A009349
:1020400001218C4800F036F98B4B5A68FF2A02D8E0
:10205000802252005A6080227D4C824B21691201FD
:10206000854D1A60002907D0606901F0E1FD431C2D
:102070005800C0180338FDD2E0217F4B02201A68B7
:102080001140802252012A431160196848400321FF
:102090000140116004219A681142FCD08022802105
:1020A00092012A4309011160802252005A60734B49
:1020B0002361734B5968FF2900D85A600321684A8D
:1020C0006F4B116002399A681142FCD0E0201A6807
:1020D0001040802252011A431060186848400321C2
:1020E00001400220116066498A681042FCD08022BB
:1020F00092011343802212011A608022614B520028
:102100004A606361604B5968FF2900D85A60802299
:102110005E4BE16912015C4D1A60002907D06069CD
:1021200001F086FD431C5800C0180338FDD2E022A0
:1021300055490B681A4080235B012B431A608023AA
:1021400080229B012B4312011A608022414B5200D6
:102150004A60E3614E4B5968FF2900D85A608022DB
:102160004C4B216A12014A4D1A60002907D0606960
:1021700001F05EFD431C5800C0180338FDD2E02278
:1021800043490B681A4080235B012B431A6080236C
:1021900080229B012B4312011A60802380225B0066
:1021A0004B602C4BD20223623B4B5968914200D2C8
:1021B0005A608022394B616A1201374D1A6000293A
:1021C00007D0606901F034FD431C5800C018033883
:1021D000FDD2E02230490B681A4080235B012B437B
:1021E0001A60802380229B012B4312011A608023F6
:1021F000DB024B60184B6362294B5A68FF2A02D8F6
:10220000802252005A608022264BA1691201244D7F
:102210001A60002907D0606901F00AFD431C5800CC
:10222000C0180338FDD2E0221D490B681A408023F4
:102230005B012B431A60802380229B012B431201F8
:102240001A6080235B004B600E4BA361DAE6C04648
:1022500024320020006CDC021BB70000008000402C
:102260003CB0004030B00040002F68590080024070
:10227000008C864700C0024030800040001BB70041
:102280003C800040405973075480004054B00040E7
:102290006080004060B000406C8000406CB0004046
:1022A0004880004048B00040014B8000C058704753
:1022B00024320020F8B5040021481D0017000E004C
:1022C00001F0B6FC0100380001F0B2FC069B2904C5
:1022D0001B0319432368002B20DB1A4B1A4DE2180D
:1022E00053425A4180235B019C461203174B6244C0
:1022F0001A60174B1A601700AB689F43FBD1C022CE
:10230000231D92011A4321232660A06013602368D5
:10231000002BFCDA0823E1601360F8BD3F2322683C
:102320001340B342D9D1A3681B051B0D8342D4D1FE
:10233000EE22E368D20213408B42CED1EDE7C046D5
:10234000001BB7000040FDBF00C0004000E000409F
:1023500000F000408023024A9B000343D362704791
:102360000080054010B5140080221B4BD2051A6076
:1023700000281AD00123194A1843194BDA61194A67
:1023800042401A62596298628022134BD2051A6049
:102390001549164A1160E022D2041A60002C07D1B8
:1023A0008022134B12061A6010BD0D4BD861EBE76B
:1023B00063011B1B9A008023121912015B049A42CD
:1023C00000D30C4A0C4B1A60054B5A608022084B14
:1023D000D2051A60E8E7C04600B00540D3C007B098
:1023E000008005402D3FF84FFCFF01000820014010
:1023F00000A00540FFFFFF00185E0020AA23064A48
:102400001B0113602F230549D360054B19605368E6
:10241000002BFCDA7047C0460040024000B0FA00D2
:10242000006002402C4B2D4A70B51A602C4A2D4B8F
:102430002D491A6014008B689C43FBD12B4D2C4E08
:10244000B54208D2013E761BB60808CD9847230056
:102450000134B342F9D1FFF7BFFD264A214B1A6080
:10246000214A9368DB43DB01DD09002BF9D14022CF
:10247000214B224C224E9A675A671A67DA66B44299
:1024800008D223682000002B20D00834FEF7F4FD8A
:10249000B442F6D31B4E1C4CC022A168300003F09E
:1024A000CBFAA660FEF7FAFAFEF7AAFDFEF79CFF4C
:1024B000164C174EB44208D2013E361BB60808CC63
:1024C00098472B0001359E42F9D170BD0834FEF7C4
:1024D000C5FDB442D5D3DDE700E00040BFCDFBFE33
:1024E000FE7F3C0000F0004000C000406828002053
:1024F00078280020FFFFFF0100F001406028002045
:10250000682800200000002000ED00E0782800206E
:102510008C28002000BEFDE7094A0300106800284F
:1025200005D00849C3188B4207D813607047064886
:102530000449C31810608B42F7D901204042F5E7E7
:10254000105A002000000420BC5E002000207047CC
:10255000012040427047C04610B5FFF7DBFFC04680
:102560000FB400B5084883B003F0A8FB049B002B10
:1025700007D005A91800019101F0DAFA034803F029
:102580009DFB0120FFF7C6FF044E01103CD4011053
:1025900010B50148FFF7E4FF144E01109A4200D233
:1025A000885470477047C046F8B557464E46454672
:1025B000DE46E0B599460A9B07009A460D9B884681
:1025C000934615000B9E9B0710D10C9B9E420DD28B
:1025D0009D1B14000E005D4422004B460134310067
:1025E0002020B847A542F7D1B0460B9E002E27D039
:1025F000444675195346AA1B013E985D21004B467F
:10260000B847002EF6D123002C0098460D9B9B075F
:102610000FD55B46E51A0C9BAB420AD94646984655
:1026200022004B46310020200135B8470134A8452F
:10263000F6D82000F0BCBB46B246A946A046F8BD7D
:102640002C00E3E7F0B54F464646D646C0B584B009
:1026500098460EAB1B78129F994694460D9C109B92
:10266000119EBA0725D4002E4BD19C4200D3BFE067
:1026700001223A4092461F2C00D9B8E00C9A551E10
:10268000302201E0202C03D001342A55A342F9D88E
:102690005246002A0DD0A6420BD9202C44D00C9AC9
:1026A000551E302201E0202C3ED001342A55B44280
:1026B000F9D1FA064DD57A053FD4002C39D10F9BBC
:1026C000102B00D179E00F9B022B00D18AE0302340
:1026D0000C9A012413704B46002B3FD02D230C9AEB
:1026E000135501340C9B62460093039743460296B0
:1026F0000194FFF759FF04B0E0BCBA46B146A846C2
:10270000F0BD012215003D40AA463A422FD04A466C
:10271000002A02D10C323A4200D0013E9C42BAD289
:102720001F2CABD9202E27D92024FA06DAD57A051A
:1027300003D4A3422DD0A6422BD00F9B102B32D016
:10274000022B20D0202CCDD030220C9B1B191A70CC
:102750000134202CC6D04B46002BBFD17B070DD4B3
:102760003B07BFD520230C9A13550134BAE79C428E
:102770009FD21F2C00D881E720249AE72B230C9AA4
:1027800013550134AEE7202CACD00C9B1B1901343F
:102790003AE0631E012C92D00F9A102A2AD0022A06
:1027A0002FD01C00D0E7BB060ED4202C9AD00C9B57
:1027B0001A19013478231370C4E7BB060DD47823AB
:1027C0000C9A01241370BFE7202C00D18AE758220D
:1027D0000C9B1B191A700134B4E758230C9A01247E
:1027E0001370B1E70C9A603301241370ACE7202416
:1027F00000265EE7023CBA06E9D40C9A12191C00C6
:10280000D8E70C9A9246534462221A709AE7C0465F
:1028100010B5002800D110BD03F004FAFBE7C04654
:10282000F0B5DE4657464E464546E0B59BB09B4662
:10283000249B89469846259B0B900C924046424625
:1028400019009A4601F0C9FC002800D0D8E0012206
:1028500040465146774B524201F0BAFC002800D066
:10286000CEE0012240465146734B524201F09AFCA1
:10287000002800D0C4E0002200234046514601F069
:1028800091FC002800D0B9E1424653460A920993D0
:102890008023289ADB001A400E92289A1A4201D10E
:1028A000062326930A9A099B1600134300D0C7E01B
:1028B000289B002500261B0500D49BE100230D93D7
:1028C000269A0D9B9A4200DC9FE1D01A431E269364
:1028D0008023289ADB001A430023002728920D93B7
:1028E000279B0024BB4200D9DC1B0223289A1A40F4
:1028F0000E92289A134203D07B427B415B421C40DC
:102900000D9B002B07D00A9809992A00330001F08B
:10291000E8FB0A900991002200234046514601F04D
:1029200041FC002805D080200006844609996144B6
:102930000991289A414B0B9D13400493269B0A9AB8
:102940000293099B03940092019349465B46280039
:102950000C9A00F08BF90400002F62D0289B220013
:1029600098061F23C0179843631C984649465B4648
:102970006530A8470D9B0025DA179C18DB0F9A4697
:102980005440013F01E0202D13D00AAA94461F2392
:10299000200063440A2101355E1901F049F9303104
:1029A000317020000A2101F043F926000400092EAD
:1029B000E9D805230693002304930A33039353466F
:1029C00005970B9F029312AB009342465B46494624
:1029D00038000195FFF736FE0E9B0400002B20D037
:1029E0000C9BC51A279BAB421BD91E0022005B46DD
:1029F000494620200135B8470134AE42F6D810E0F0
:102A0000289B42460493279B49460393269B0B9899
:102A100002935346009201935B460C9A00F026F90C
:102A2000040020001BB0F0BCBB46B246A946A0463D
:102A3000F0BDC046FFFFEF7FFFFFEFFFFFF7FFFF97
:102A4000734B099F9C467800400D604401F0D8FB11
:102A5000704A714B01F063FB704A714B01F038FB17
:102A60003B03704A1B0B1A4304000D003000110099
:102A70006D4B002201F023FB6C4A6D4B01F04FFBC4
:102A800002000B002000290001F022FB01F0D0FB26
:102A90000D9001F0B5FB674A674B04000D0001F093
:102AA0003EFB0022654B01F013FB01F0C1FB644AC1
:102AB0000600644B2000290001F031FB04003000C7
:102AC0000D000F9601F09CFB5F4A604B01F027FB65
:102AD00002000B002000290001F0F1FA02000B00B7
:102AE00006000F0001F01BFB320004000D003B004C
:102AF0003000390001F0ECFA002210901191544B93
:102B00002000290001F0EDFA0022524B01F0E0FA1A
:102B100002000B002000290001F0E3FA00224E4BD6
:102B200001F0D6FA02000B002000290001F0D9FACA
:102B30000D008021040032003B000020C90501F097
:102B4000BEFA02000B002000290001F0C1FA0200C9
:102B50000B001098119901F0C4FA0022314B01F0DA
:102B6000B7FA3E4B0F9C9C4664440022230501F0BB
:102B7000D6FA05000E0002000B000A98099901F030
:102B800011FB00280AD00D9B2800013B31000D935A
:102B90000022304B01F0A5FA05000E00C6270D9962
:102BA0002B0063318F42BF4128997F4204370905CA
:102BB00000D495E6334300D182E6099C284A2100DF
:102BC000284B0A9801F0FCFA002808D000222100C6
:102BD000254B0A9801F0E6FA002800D070E6269B03
:102BE000002B00D17CE60E9B5A1E9341269AD31AE5
:102BF000269375E6002304270D9371E643460A9356
:102C000080231B065344099342E6002326935FE684
:102C100001FCFFFFFB799F501344D33FB3C8608B87
:102C2000288AC63F0000F03F0000F83F61436F6311
:102C3000A787D23F71A379094F930A400000E03F74
:102C40001655B5BBB16B0240EF39FAFE422EE63F96
:102C500000002C400000244000001840FF0300004A
:102C60002D431CEBE2361A3F80842E41F0B54E46D0
:102C7000DE4657464546E0B597B09946209E219FCF
:102C8000229B8346984607910C923B00320030000D
:102C9000390001F0A2FA002800D0A9E10122300099
:102CA0003900CA4B524201F07DFA002800D0E1E021
:102CB000012230003900C64B524201F089FA002847
:102CC00000D0B7E0002230003900C24B01F080FA9A
:102CD000002800D099E0002230003900BE4B01F0FE
:102CE00061FA002800D090E0002200233000390073
:102CF00001F058FA002800D0B1E000230D93249B86
:102D00005B0501D40623984608AB9C461722002495
:102D100030234146624404E0013413550139202C2C
:102D200001D00929F8D888463000390001F080FA2E
:102D30004346DA00A94B05009B181A685B680892A5
:102D4000099301F05DFA02000B003000390001F038
:102D5000B6F9089A099B01F0E2F90A900B9101F08B
:102D60008BFA824601F048FA02000B000A980B9990
:102D700001F0A5F900229A4B0A900B9101F028FA74
:102D8000002800D1C0E001239C46E244504601F0F7
:102D900033FA02000B000898099901F009FA00289B
:102DA00002D000239A4601354346002B6AD008AB77
:102DB00017269C4608956644554614E001235B425D
:102DC00043440A2128009A4600F032FF0134303192
:102DD0003719397028000A2100F02AFF092D00D880
:102DE000D0E0D0460500202CE8D10EAB9846032356
:102DF000249A1340012B00D196E02023249A0193BA
:102E00000392239A434602921EE0249B5846049361
:102E1000239B00960197039343460C9A02930799CC
:102E20004B46FFF7FDFC17B0F0BCBB46B246A946C7
:102E3000A046F0BD249B5B070ED40322694B249966
:102E40000192039123990291009358464B460C9AA4
:102E50000799FFF7A9FBE6E70422634BEFE73B0086
:102E600032000020002101F02AF9012306000F00A2
:102E70000D9344E7249B0393239B02930423019324
:102E80005A4BE1E7280001F0BBF902000B003000CB
:102E9000390001F014F9524B002206000F0001F036
:102EA00081F90EAB984600280AD100223000390083
:102EB0004B4B01F08DF9002802D1EB0700D501350D
:102EC000202C94D008AA94461723280063440A2192
:102ED00001341E1900F084FE3031280031700A21BF
:102EE00000F07EFE051EEBD10323249A1340012B34
:102EF0001BD0202C00D180E70D9B002B35D02D223C
:102F00004146631C0A5579E700220A980B99344B15
:102F100001F048F9002800D046E75346002B51D174
:102F200001239C46E2443FE72024239B002BE0D072
:102F30000D9B002B03D1249A0C33134202D0239B08
:102F4000013B2393239BA342D3D908AB9C46172272
:102F500030236244202C00D14FE7239901341355CC
:102F60008C42C6D0202CF8D147E7249B5B0724D4A1
:102F7000249A2300120700D440E72022414601335F
:102F80000A553BE75746089D202C00D12DE722002B
:102F900030214046002F09D00132B154202A00D1FF
:102FA00023E7D3431B191B18002BF5D10EAB984612
:102FB0002E234146541C8B5482E72B224146631C2E
:102FC0000A551BE7DB0700D4EEE6A9E7FFFFEFFF9A
:102FD000FFFFEF7F65CDCD4165CDCDC1185001100C
:102FE0000000E03F204E0110244E0110304E011031
:102FF000249B0393239B029303230193004B23E71A
:103000002C4E0110F0B5DE464E4657464546E0B51B
:103010009FB01C00289B91460993C94AC94B8B4617
:1030200008901A60002900D118E2002320789A46FF
:10303000002800D11AE226001D005C460AE02A00A2
:103040006F1C4B46089D2100A8473D000136307893
:10305000002870D02528F2D110239B46083B9A46C1
:10306000043B9846023B00219C46721C10781600D7
:103070000300203BDBB2102B03D8B34F9B00FB585F
:103080009F460300303B092B32D900230A932A289C
:1030900068D0002398462E283ED00300683BDBB260
:1030A000122B1CD8A94A9B00D3589F4601230132FA
:1030B0001943DBE7634601321943D7E74346013240
:1030C0001943D3E75B4601321943CFE75346013238
:1030D0001943CBE780235B00707819430136030066
:1030E000253BDBB2532BAAD8994A9B00D3589F4665
:1030F00000270300B800C01901364000C01833781B
:1031000030381A00303A0700092AF3D90A9018001B
:10311000002398462E28C0D180237078DB00194305
:103120000300303B721C092B00D8A1E12A2800D1F2
:10313000B2E11600B1E7A346AA462C00D14503D858
:1031400001235B424B449A464B4652465946002067
:10315000089DA84720001FB0F0BCBB46B246A94658
:10316000A046F0BD099B40CB0A96002E03DB5078A9
:103170000993561C8DE72838014370420A90099341
:103180005078561C85E7782800D1DFE1582800D117
:103190004CE26F2800D14FE3622801D100F030FCEF
:1031A00010230A009A430B92692801D000F0A9FC71
:1031B0000A230C934B0500D5D0E10B9A8023110014
:1031C0009B0019408B461A4200D0A1E280231100D7
:1031D0005B0019408A461A4200D0B6E313005B0632
:1031E00000D5EDE2130009991B0601D400F076FC2E
:1031F00008C91BB2D8171A18424092B209919346D7
:10320000DA0F1292002B09D1802310220B99DB00D8
:103210000B4091430B91002B00D0E4E20B9A612309
:10322000920600D541230EA91F228C46DBB26244D0
:103230000A3B5F461395A34655460C9CB2460D9338
:1032400016000AE03033DBB201357355A74200D2D5
:10325000EDE2202D00D1EAE207002100380000F065
:10326000E7FCCBB20929EDD90D9A94466344DBB251
:10327000EAE780239B007078194301362FE77078C6
:10328000682800D1CDE180230136194327E7707803
:103290006C2800D1BFE180235B00194301361EE793
:1032A000462800D19BE10722099B049107339343F1
:1032B0000A9A19000392424602920CC90898009299
:1032C000019309912A004B462100FFF7CFFC0136FC
:1032D0000500BCE62A006F1C4B46089D21002520F6
:1032E000A84701363D00B2E68B0700D4ADE1099B4B
:1032F0002A009A466B1C9846534601CB21009A46F9
:10330000089F4B46C0B2B8470A9B9C466544012BB8
:1033100000D886E2089B4746B04626004C469946B0
:103320003A002300013731002020C847AF42F7D1CF
:10333000A1465346340046460993013687E6C04607
:1033400005300010145E0020384E01107C4E011034
:10335000C84E0110099B04CB9B4643460992002BA3
:1033600000D1C6E013789C46002B00D1BDE3434654
:10337000013B099A0133D0180A9F130001E08342F0
:1033800003D05A780133002AF9D1099A0A979B1A77
:103390000B9380230A00DB001A400C92194204D0E0
:1033A0000B9B434501D943460B9302231A000A4065
:1033B0000D920B4200D187E16046002800D168E100
:1033C0000C9B002B00D10DE1A844C246099B574637
:1033D0005B1B9846089BB2462A0026004C4699463D
:1033E00009E023003100551CC8474346585D0028BA
:1033F00000D126E12A009742F3D1A1463D003400D6
:1034000056460D9B002B00D043E15B4601360993E5
:103410001DE6099B1A0008CA9246002B48D02122BB
:1034200011438B460EA884461F2161440995002252
:103430000F27A4460D0002E0202A0CD00B003C0010
:103440001C4020003730092C00D807380132A8541E
:1034500019090F2BF0D86446099D32E0DC4B207827
:10346000089300239A46002800D0E4E5002465E68E
:10347000434606000A9F9800C01801324000801998
:103480001678030030003038303B0928F3D930007B
:10349000984616000A9700E6099B023604CB904630
:1034A000D2434046D2171040804609933078F4E565
:1034B0001022080090431132104383460022490530
:1034C000B0D55B4606930823059343460493102327
:1034D00003930023029316AB019200932A004B46FC
:1034E00021000898FFF7AEF853460500013609930E
:1034F000ADE513789C46002B00D1F7E202235B4236
:1035000037E7202302009A43472A04D180231B0176
:10351000194302239843452801D120231943072248
:10352000099B0491073393430A9A19000392424678
:1035300002920CC908980092019309912A004B4607
:103540002100FFF76DF90136050080E510230C938B
:103550000C230A009A430B924B0503D501230B9AC7
:103560009A430B92692800D127E6642800D124E60B
:103570000B9A802311009B0019408B461A4200D001
:1035800066E1802311005B0019408A461A4200D090
:1035900039E213005B0600D53CE113001B0600D4A2
:1035A000A6E2099B04CB1204120C934609935B46D6
:1035B000002B00D09AE10B9A1033110099430B9124
:1035C000520500D492E100239A460B9B06930A9B76
:1035D0000593434604930C9B039300230CE12023A3
:1035E000194360E6099B0A9A5B1B98464B46914635
:1035F0001F00B2462600089C2A003B003100A0476D
:1036000043460135585D0028F6D14A463400B94694
:1036100056460A92F5E6C0239B00B078194302365D
:103620005DE5C023B0781943023658E50C230A0043
:103630009A4314331A43103B0B920C934B058DD4D1
:1036400096E7A14634005646DBE60A9A012A00D8DE
:1036500053E26B1E9F18089BB04626004C469946C5
:103660002A002300013531002020C847BD42F7D190
:10367000A14634004646099B3A0001CB21009846FA
:103680007D1C4B46089FC0B2B8474346013609939C
:10369000DDE40B9B0A9AA8469A4200D8B5E6944608
:1036A0006544ED1A089B4746B04626004C469946AD
:1036B0003A002300013731002020C847AF42F7D13C
:1036C000A14634004646A0E60B9A0A99531C914243
:1036D00000D814E24B199B1A1F00089BB246260023
:1036E0004C4699462A002300013531002020C84766
:1036F000BD42F7D10A9BA14601330B93099B3400CD
:103700001B7856469C466046002800D058E67CE66A
:103710000722099B07339343013294469C44624637
:103720005F6809921A68FB1710931193109811990A
:10373000030053400E930B007B400F9394460E9A68
:103740000F9B121A8B410E920F93FB0F624612933E
:1037500000233A439B463DD00B9A6123920600D545
:1037600041230022DBB20EA90A3B8C4692460D9300
:1037700043461F3262441395159655460E9E0F9F81
:10378000A24690460C9C14930CE03032D2B24346D1
:1037900001355A55BB4500D18AE1202D00D18AE17F
:1037A00006000F00220000233000390000F07EFAEE
:1037B000D2B2092AE9D90D9B9C466244D2B2E6E70F
:1037C000FF23099904C913401A00099117E5C0465F
:1037D000A52500100B9A1033110099430B91520547
:1037E000BAD500239A460B9B06930A9B0593434642
:1037F00004930C9B0393129B02935346019316ABC5
:103800002A00009321004B460898FEF71BFF013663
:1038100005001CE4FF22099B02CB11408B46099353
:10382000C5E65346454609930136FFF710FC564658
:103830005C46AA46139DD6E708230C930B910B997F
:10384000642800D084E60B9B5B0500D586E6B4E4D3
:103850000722099B07339343013294469C446246F6
:1038600009921A685B6810009B4613005A4613437E
:1038700007D10B9A1033110099430B91520500D5D3
:10388000A1E60B9A6123920600D541230022DBB208
:103890000EA90A3B8C4692460D9343461F32624462
:1038A0005F461295A34655460400B24690460C9ECC
:1038B00013930DE03032D2B2434601355A550023FE
:1038C000BB4200D100E1202D00D100E104000F0037
:1038D000320000232000390000F0E8F9D2B2092AB2
:1038E000E8D90D9B9C466244D2B2E5E70B9A61236E
:1038F000920600D54123DBB20EA90A3B1F228C465B
:103900000D93230062445C461295170055469B4672
:10391000B2460C9E08E03033DBB201357B55B44231
:103920000ED3202D0CD004003100200000F080F9CF
:10393000CBB20929EFD90D9A94466344DBB2ECE788
:1039400056465C46AA46129D3FE6099B1A0008CAE5
:10395000D91713925A184A409246DA0F1292002B46
:1039600008D1802310220B99DB000B4091430B916F
:10397000002B2BD10B9A6123920600D541230EAA6E
:103980001F279446DBB20A3B0D9567445D460993B9
:10399000A3465446B2460C9E08E03033DBB20135F4
:1039A0007B55B4420ED3202D0CD0040031002000F2
:1039B00000F03EF9CBB20929EFD9099A9446634445
:1039C000DBB2ECE756465C46AB460D9D0B9B2A00EE
:1039D00006930A9B21000593434604930C9B089889
:1039E0000393129B013602935B46019316AB00933F
:1039F0004B46FEF727FE139B05000993FFF727FBB5
:103A000002230C931AE7099B04CB92461293002AD7
:103A100008D1802310220B99DB000B4091430B91BE
:103A2000002B2BD10B9A6123920600D541230EAABD
:103A30001F279446DBB20A3B0D9567445D46099308
:103A4000A3465446B2460C9E08E03033DBB2013543
:103A50007B55B4420ED3202D0CD004003100200041
:103A600000F0E6F8CBB20929EFD9099A94466344ED
:103A7000DBB2ECE756465C46AB460D9D0B9B2A003D
:103A800006930A9B21000593434604930C9B0898D8
:103A90000393002302935B46019316AB00934B46BE
:103AA000FEF7D0FD129B050009930136FFF7CFFA10
:103AB000B44200D871E6149B54460E960F97AA465E
:103AC0009846159E139D8EE6A64200D8FBE6139BF2
:103AD00056469846AA465C46129D76E508C9D81710
:103AE0001A1842400991FFF78AFB00230B9350E418
:103AF000099B04CB9346099359E52F00BBE50B9333
:103B000001E6063B0C939AE60EB4012210B585B08F
:103B100007AC08CC01000094524204480394FFF71C
:103B200071FA05B010BC08BC03B018479D25001001
:103B300010B5094A0300146884B0002C08D0012293
:103B400000910648524203A9A047012004B010BDCD
:103B500002F0B4F80020F9E7145E002011280010EC
:103B600001480421014B1847A01F00209D3B001075
:103B7000014B5B6818470000A01F0020142310B5FC
:103B80000100188804331B88984710BD162310B510
:103B90000100188802331B88984710BDF8B54746C6
:103BA000CE4680B50F1E19D0142399460433040065
:103BB0000025012698464B461888434621681B88F5
:103BC000984701C4431E9841013540420640AF4228
:103BD000F1D13000C0BCB946B046F8BD0126F8E7C7
:103BE000124A936F9B0815D29066D166002905D0C2
:103BF000FFE7FFE7FFE7516F106F704704B58021C3
:103C00000906C2175140002800D0C84310F0F0FF49
:103C1000002104BDF0B5146E556E576F166FFFF797
:103C2000E3FF1466556657671667F0BD000000D0C5
:103C3000114A936F9B0813D210665166002905D074
:103C4000FFE7FFE7FFE7516F106F704704B50028EB
:103C500001D00020C04310F0CBFF002104BDC046BE
:103C6000F0B5146E556E576F166FFFF7E5FF1466CB
:103C7000556657671667F0BD000000D094464A4A63
:103C8000926F9208624601D228E0C046F0B5464ED7
:103C9000346E756E776F366F00F020F89446424AA6
:103CA00014665566576716676246F0BD94463E4AED
:103CB000926F9208624601D254E0C046F0B53A4E87
:103CC000346E756E776F366F00F04CF89446364A56
:103CD00014665566576716676246F0BD002B24DBF5
:103CE00011D000293EDA00B5C943404200D101316C
:103CF00000F038F8C943404200D10131DB43524261
:103D000000D1013300BD002AEBD1002801D10029E8
:103D100005D00020C90FC90701D1C043410800B533
:103D200010F026FF0022002300BD00B500290ADBA9
:103D3000DB43524200D1013300F014F8C943404242
:103D400000D1013100BDC943404200D10131DB4304
:103D5000524200D1013300F005F8DB43524200D15A
:103D6000013300BD002923D1002B18D1002A0CD02B
:103D7000BC460D4F38667A6600210023FFE7FFE757
:103D8000FFE77A6F386F67467047002801D0074811
:103D9000010000B510F0ECFE0022002300BD02007F
:103DA0000B00002000217047000000D0FFFFFFFF44
:103DB000002B00D0BFE0130C28D1002AE7D080B43C
:103DC000114F39667A66FFE7FFE730B4040C7B6F6A
:103DD000396F1B0423433B667A66FFE7FFE7FFE783
:103DE000C04684B27B6F3D6F1B0423433B667A66FB
:103DF000FFE7FFE7C04600232C042D0C7A6F386FD5
:103E000000196941B0BC7047000000D0F0B594467D
:103E10000025140E01D112020835140F01D1120130
:103E20000435940F01D192000235D40F01D1520014
:103E30000135D40B0134254F7C66254C3C660E0CB5
:103E400093B2FFE7FFE7FFE73C6F6643360C77036B
:103E5000BE467343DF0B5B04C01AB941130C7343B6
:103E6000DB18C91ACE086643360CB64493B27343C6
:103E70001F0F1B01C01AB941130C73431F0B1B0505
:103E8000C01AB941860D8F023E436643360C092D98
:103E900024DB520A7243801A7703460A6643360CC3
:103EA00016235B1BDE40DF40BF1964466643821B5E
:103EB0007046043506330100D940A840C01900D32C
:103EC0000131A24206D20023F0BD0000000000D064
:103ED000FFFFFFFF121B0130F3D3F1E709277F1B20
:103EE000FE406446A2B27243801A00D20139220C0D
:103EF0007243130C1204821A99410B007046043568
:103F000013370100F940A840801900D30131002B7C
:103F100002D1A2420AD2F0BD013000D30131121BFE
:103F2000FAD2013BF8D1A24200D2F0BD013000D359
:103F30000131121BF7E7F0B51C0C00D080E00CB487
:103F400000251C0A04D11B02160E33431202083549
:103F50001C0B04D11B01160F3343120104359C0BBB
:103F600004D19B00960F334392000235DC0B02D143
:103F700092185B4101351C00971864410134464F8B
:103F80007C66464C3C660E0CFFE7FFE7FFE7C04649
:103F90003C6F6643360C7703BE4697B27743C01B2F
:103FA00000D20139C01B00D201399FB27743C91B2F
:103FB000C91B170C77437E04FF0B801BB941CE0849
:103FC0006643360C0C2D33DBB644120B1F053A4307
:103FD0001B0B97B27743C01B00D201399FB27743C6
:103FE000C91B170C77433E043F0C801BB941860D5B
:103FF0008F023E43664329277F1BFE400C3D7746D8
:10400000AF40BF1930BCA2B2ABB272437343801A47
:104010009941220C7243130C1204801A9941020038
:104020000B000137001BA941F9D2781E0021F0BD19
:104030000C277F1BFE4077467F0BAF40FF19E0E760
:1040400000245D1C07D0144F7D663966FFE7FFE74B
:10405000FFE7FFE73C6F95B29EB265436643401BA6
:10406000B141150C1E0C6543664336042F0C3E43CC
:104070002D04401BB141994204D202000B002000E4
:104080000021F0BD01D19042F7D3801A994101344B
:104090009942F2D3F6E70000000000D0FFFFFFFFD7
:1040A00044464D4656465F46F0B47047F0BCA046C5
:1040B000A946B246BB46704748404140484018B404
:1040C0001B4B5B68FC46019308BD04DFD346001020
:1040D00018B4174B1B68FC46019308BD00DFDD4692
:1040E00000109446134A926F920809D2624618B49F
:1040F0000F4BDB68FC46019308BD0CDF95490010AF
:104100000C4AF0B5146E556E576F166F6246FFF786
:10411000EEFF084A1466556657671667F0BD18B477
:10412000034B9B68FC46019308BD08DF394800102B
:10413000C8290020000000D0FFB550404240504048
:1041400059404B40594000E0FFB5154F4C00640DFD
:1041500003D0BC4204D10C0314D80020090D09057A
:104160005C00640D03D0BC4204D11C030AD80022B9
:104170001B0D1B0501264B4009D44B4003D58B4238
:1041800000D18242FFBD9942FCD19042FFBD0B435A
:10419000DB1803431343F5D0C9434918FFBD0000A2
:1041A000FF07000000B5FFF7CFFF804100BDC0460C
:1041B00000B5FFF7C9FF01D9002000BD012000BDF7
:1041C00000B5FFF7B9FF01D9002000BD012000BDF7
:1041D00000B5FFF7B1FF804100BD012040054A0056
:1041E000121804D85A00121801D800207047012074
:1041F00070470020704700000021002805D170475B
:10420000C1174840401AFAD0C90713B5064B1B68BE
:1042100098470CBC441CA2401005120B0349091B13
:1042200009051943114310BD405E00201F04000022
:1042300010B54C00620D8023D218DB00D21A5B054A
:104240007E2A10DD9E3A13DACC1709034908194378
:104250005242D140640001341532202A05DAD040A0
:104260000843604310BD002010BD0846604310BDE8
:10427000C80FC018013810BD18B4044B5B6AFC4667
:10428000019308BD24DFC94B00100000C82900209D
:1042900018B4044B1B6EFC46019308BD60DFD74C7D
:1042A00000100000C829002018B4044BDB6FFC4646
:1042B000019308BD7CDF614C00100000C82900207C
:1042C000024A034B00B500F0E3F900BD182D445439
:1042D000FB2119408A0002D3920D092A08DA18B48A
:1042E000064BDB6BFC46019308BD3CDF0B4E001018
:1042F00000B5FFF7E5FF04BC9646F0E7C8290020AB
:104300008A0002D3920D092A08DA18B4064B1B6CF6
:10431000FC46019308BD40DF1B4E001000B5FFF7BF
:10432000CFFF04BC9646F0E7C829002018B4044B20
:10433000DB6CFC46019308BD4CDF1D5100100000F2
:10434000C829002018B4044B1B6DFC46019308BD1E
:1043500050DFB95100100000C8290020132370B5A8
:104360001D78012D15D010DD1C48FFF70FFC1C4CEB
:1043700001008022200001F05FFB022D06D01948C9
:10438000FFF7FCFB184B186070BD154C174BA3646E
:10439000F5E7164B124C23606360A360E360236172
:1043A0006361A361E36123626362A362E3622363E7
:1043B0006363A363E36323646364A364E3642365C7
:1043C0006365A365E36523666366A366E3662367A7
:1043D0006367A367E367A364D1E7C0465344000063
:1043E000C82900204C330000405E0020A146001088
:1043F000F0B557464E464546DE46E0B587B00292D8
:104400005A009A46530D9946109B4D0004006D0DBD
:10441000002B01D000221A609A4A95427DD04B466B
:10442000002B7AD0002D00D182E027000E009145AC
:1044300075D0013B0393AB4271DCCB0F0E03984662
:10444000330B9B4680235B039C465B4662461343CB
:104450001F005346060018036346000B0343029AED
:104460000193039B0092AB4200D1AAE04346002B8C
:1044700000D1B7E033003C0000275E42A7414B4625
:10448000ED1A002D00DCC0E00120019B4042191113
:10449000FFF7CEFB002398464B4603935346AB46AB
:1044A000029004931BE032009A40150033005246FC
:1044B00093401C004B464846D917009A019B00F0D8
:1044C00061FF4346524693404B4498465B46260064
:1044D0002F009B1A361A8F419B46002B2BDD5B4623
:1044E000DA460C2B01DD0C239A46029ABB1153438A
:1044F00051461D22521A1341202201335B105242B1
:1045000099468B18CFD5202332005B1ADA4013006E
:104510003A008A4015001D43C8E700275A4E38006C
:10452000310007B0F0BCBB46B246A946A046F0BD7C
:1045300000270026F3E7039B9946049B9A46009BBD
:10454000019CBC4200DD83E000D17DE0009B019C2A
:10455000F61AA741BC4200DD8BE000D185E0009B4C
:10456000019CF61AA74102239C46E04432000098C1
:1045700001993B0092197B418B421ADC17D00099BC
:104580008A425AD05346002B02DA43465B42984691
:10459000109B002B01D042461A604B463B4A30002C
:1045A0003900D21AFFF774FE07000E00B7E7824207
:1045B000E5D9009B019CF61AA74101239C46E044E3
:1045C000E0E7019B9F422FDD0098019943460018C8
:1045D0004941002B3FD1039B361A8F419946012355
:1045E0009846CFE74B46ED1A002D00DD4CE7019BC6
:1045F000BB42BBDC009B019CBC4201D1B342B5D89D
:10460000009B019CF61AA74133E000239846009BCB
:10461000019CF6186741002F2FDAF6186741022334
:104620005B429C46E044A1E7009A019B9F4201D176
:104630009642C9D827000E0071E7019A9342A1D192
:104640004346DB079ED5B4E7009BB34200D87DE725
:10465000002FDCDB8AE7039B801BB94199460123CD
:104660005B4206000F0098468CE7009BB34200D8DF
:1046700075E701239C46E04478E701235B429C46B2
:10468000E04473E7FF0700000000F07F3304000000
:1046900010B5002482B00094FFF7AAFE02B010BD4E
:1046A00007B5604601880A0A0230DF2AFAD1C9B28A
:1046B000820804D3028840880004104300E00068A8
:1046C000014A5050039007BDC82900200FB403BC15
:1046D0000CBCF0B50124E407634000E0F0B50C0D1C
:1046E000CF0F661E3605891B640503D3C9434042BC
:1046F00000D30131640D03D0661CF60A07D0E41B19
:1047000000207F00791C89078912803C24031D0D3D
:10471000DF0F6E1E36059B1B6D0503D3DB43524234
:1047200000D301336D0D03D06E1CF60A07D0ED1BCC
:1047300000227F007B1C9B079B12803D2D032F1BBB
:10474000661B58D4A446202E46DA20371400BC40FD
:104750001D00BD40F24033412A4380185941CB0F20
:1047600005D0C943C04300226442504151416246D2
:104770004D0D28D10D0D07D100281FD0241940411F
:104780004941013A0D0DF9D0640006D3013000D340
:104790000131002C01D140084000013A0BD4941C97
:1047A000E40A04D112051144DB071944F0BDD9070E
:1047B000204B194300E0D9070020F0BD0029DDD1CE
:1047C000002CDBD1F0BD0132C6074008CD072843DD
:1047D0004908002EE1D0D9E73C2E29DA203E4037A7
:1047E0001400BC4000D00124F24014431A00BB4026
:1047F0001C43D317ACE7AC46202F08DA2036040060
:10480000B4400D00B540F84039412843A5E73C2F9E
:104810000CDA203F40360400B44000D00124F840B8
:1048200004430800B1400C43C117EAE71000190027
:10483000002494E70000F07FF0B50C0D661E3605ED
:10484000891BE60A6405640D02D0651CED0A04D0DC
:10485000002001210905803C2403A4461C0D671E8D
:104860003F05DB1BE70A6405640D02D0651CED0AF9
:1048700004D0002201231B05803C240377406444BC
:1048800097B484B296B27443070C7E43150C6F4301
:1048900080B26843361802D3012000043F18300468
:1048A000350C00197D41844688B29AB250430C0CF5
:1048B00062431F0C7C438EB27E43921902D30126C1
:1048C0003604A4191604170C3618674101BC81B2CE
:1048D0009AB25143040C62431B0C5C4380B25843B0
:1048E000121802D30120000424181004130C4018DD
:1048F00063412D185E410020474106BC88B293B247
:1049000058430C0C6343120C544389B251435B1857
:1049100002D301210904641819041A0C0918624110
:104920006D1856410020474118BCF902720D114321
:10493000F0026A0D1043ED020A0D03D16D194041DA
:104940004941013B124E9B1B7600B3420ED26D00D3
:1049500007D30130002671416646354301D1400836
:1049600040001B05C918E4072144F0BD0BDA0133F0
:1049700006D1013004D101314F0D01D04908F2E7D1
:10498000E1070020F0BD013631050020EBE7000013
:10499000FF030000F0B51C0D671E3F05DB1BE70A97
:1049A0006405640D02D0661CF60A04D000220123BF
:1049B0001B05803C2403D0252D060026F6432E66D9
:1049C0001E096E66CE0FF619B44649004F0D02D08F
:1049D0007E1CF60A03D000200021403F3F033E1B0F
:1049E000B600B444013F7F05C91B49082E6F01364C
:1049F00076089C02950D25437543ED137543AD1361
:104A000001356D10F603761B0CB4CC02450D2C431A
:104A1000A2B2B3B25A43270C7B43350C6F43A4B206
:104A20006C431B1902D3012424043F191C041D0CE0
:104A3000A4187D4124196D41009A91B2ACB2614332
:104A4000170C7C432B0C5F4392B25A43A41802D339
:104A500001221204BF182204230C52187B41019C2E
:104A60006C431B19520ED9010A434401A01A81B2AA
:104A7000B2B2514303145A43360C734387B277439F
:104A8000D617D21900277E4136049B191704160C3D
:104A90007F185E417316ED18F301002680337541CF
:104AA000A90F06D16400690AE8055B0A184309D218
:104AB0002FE00422944480337541A90AA8059B0A7B
:104AC000184326D3404149412404009A019B0D001C
:104AD0005543641B4343E41A95B286B27543170CE1
:104AE0007E43030C5F4392B25A43B61802D30122AD
:104AF0001204BF183204330C52197B4152429C41BC
:104B0000002C02D40022013051414008CA07104352
:104B1000490802B06246D7079210084BD218084BDA
:104B20009A4203D212058918C919F0BD0020002A43
:104B300001DC3900F0BD01331905F5E7FD03000084
:104B4000FE070000624618CA94465A46002A20DB37
:104B500004E0624618CA944600291ADAC018614176
:104B60005B463B415C46B4405246FA4022434446D1
:104B70004D4662416B41904699462B46B3403D41BC
:104B8000FC401C4352465B46A241AB4192469B46C9
:104B90007047C01AA1414B463B414C46B440424687
:104BA000FA40224354465D4662416B4192469B4621
:104BB0002B46B3403D41FC401C4342464B46A2417C
:104BC000AB41904699467047002200B5203200F074
:104BD00010F8080000BD002200B500F00CF8CA175C
:104BE0009A4200D100BDD8430121C907414000BD10
:104BF00000220B150AD410B5944600F0A7F814143F
:104C0000013400DA0021CB17144C2047002000218A
:104C100070476244343A0CD40C2A07DA04009140FD
:104C2000904052422032D440214310BDD843D94352
:104C300010BD203207D40C4694405242203211411C
:104C4000D040204310BD0800C917203203D452427F
:104C50002032104110BD1800190010BD134C001077
:104C60004A00520D144BD21A13DDFF2A1EDAD20568
:104C7000CB0FDB071A43C300400F0903490A08435F
:104C800010435B0001D301D0013070474308FBD2D1
:104C9000704702D0C80FC00770470A0312130132D1
:104CA000F8D1420F072AF5D1012200E0FF22C80FF8
:104CB00000028018C00570478003000000210A0030
:104CC000002104E000210A00C11704E000220023B3
:104CD00006E0C0460022CB1758405940C01A9941FF
:104CE00030B5184CA21A002903D1010010D00020C1
:104CF000203A4C1512D104D2013A001849414C0D0A
:104D0000FAD3114CA24204D212058918DB07C91844
:104D100030BDD243520D00200021F5E703D4013A03
:104D200000184941FBD50B324405C00A4D05284304
:104D3000C90A640003D0002460416141E1E7E0D387
:104D40004408F8E732040000FE0700000A0DCC0F0B
:104D5000531E1B05C91A520503D3C943404200D351
:104D60000131520D03D0531CDB0A07D0121B002067
:104D70006400611C89078912803A1203014BD21A20
:104D800070470000FF030000023225D40C2A1CDA11
:104D90001125AD1A0B002B41083207350600EE40F5
:104DA000904091403143F0CC63431A1500235A419F
:104DB000554356435743BF02F412760576196741AF
:104DC000ED177F19801BB94170470C220020C917CD
:104DD000490001310905DBE70902030E194300020E
:104DE0005342203208D40C0019419440D84020434B
:104DF00000225041514170470800C917203B203222
:104E0000F1D50020002100227047F0B5FFF748F9E6
:104E100000F00EF800F030F806E0F0B5FFF740F9CA
:104E200000F006F800F046F8FFF740F9F0BD00008A
:104E300000B5FFF78BFF30A4FFF7A6FF00242C4D31
:104E40002C4ED20702D3F6436D426641520004D283
:104E5000A246A346A846B14603E0A046A146AA46FC
:104E6000B3466EA4A44601271F26FFF772FE013742
:104E7000013E212FF9D100BD594684B28DB26C4359
:104E8000061475430B145E4382B25A43AD18EA17F9
:104E900000D7D2431204B6182A042B0C12197341FE
:104EA000404649469D009B17920F2A4390419941E5
:104EB0003E2210E7494684B28DB26C430614754316
:104EC0000B145E4382B25A43AD18EA1700D7D2439F
:104ED0001204B6182A042B0C121973415046594675
:104EE0009D009B17920F2A43504159413E22F2E602
:104EF000BB4DF09DC556F6367D5100001A61140079
:104F000085880A00FB211900F0B5FFF7C9F8404D6C
:104F10000C002C4001D0AC4202D1090D0905002043
:104F20001C002C4001D0AC4202D11B0D1B050022FD
:104F30000026ED02002B04D502266B40694000D408
:104F400076424F1904D599420CDD0136694003E0E1
:104F5000BB4207DA013E6B40070010003A000F0029
:104F600019003B0040B4002A0FD1002B0AD05C008E
:104F70006415013409D14C006415013402D10139A2
:104F8000013B02E0002000212EE0FFF703FD3E225E
:104F9000FFF722FE82468B46002000218046012238
:104FA000920791461DA4A44601271F26FFF7CAFDBC
:104FB0000137013E212FF9D14A4653460C3A0124CC
:104FC0006407002752081B0005D49341001979415A
:104FD0006408F7D104E05341001BB9416408F1D1E2
:104FE000CE0749104008304340BC002E0AD0094C7F
:104FF000094D01D5E443ED43F60701D1001969419C
:10500000001969413D22FFF766FEFFF74FF8F0BD3A
:105010000000F07F8D305A88A8F64332694FBB619B
:105020000567AC1DB16E4096FCBAAD0F72DB0BABE1
:10503000A66EF50739BD9FE576ABFE034B6297BAC6
:105040005BD5FF01D694DBDDAAFAFF005DEAEE56E0
:1050500055FF7F006E77B7AAEAFF3F00BCBB5555EE
:10506000FDFF1F00DEADAAAAFFFF0F006F5555F52B
:10507000FFFF0700ABAAAAFEFFFF03005555D5FFAF
:10508000FFFF0100ABAAFAFFFFFF00005555FFFF2D
:10509000FF7F0000ABEAFFFFFF3F000055FDFFFF71
:1050A000FF1F0000ABFFFFFFFF0F0000F5FFFFFF3A
:1050B000FF070000FFFFFFFFFF03000000000000EC
:1050C00000020000000000000001000000000000DD
:1050D0008000000000000000400000000000000010
:1050E0002000000000000000100000000000000090
:1050F00008000000000000000400000000000000A4
:10510000020000000000000001000000000000801C
:10511000000000000000004000000000F0B5FFF7B4
:1051200015FE54A4FFF730FE002904DA204C214D6F
:1051300000196941013A04B4012752A60022012353
:105140009B0730CEB446001BA9410BD47E422036CB
:105150001D003D411C00B4401600FE403443624136
:105160006B4101E00019694166460137212FE8D102
:1051700085B29EB2754307147E43190C4F4384B227
:105180004C43F11736190024614109047F18340497
:10519000310C64197941A40F8800204389178018C5
:1051A000594104BC52423E32FFF795FDF0BD00006C
:1051B0006BDE73F4FD855C2CF0B54F0050D27F158B
:1051C0004ED001374FD0FFF7C1FD04B44902C20DE4
:1051D0001143400201272BA6B446002200237E4241
:1051E00020360D003D410C00B4400600FE40344323
:1051F00044414D41AE0F05D120002900664630CE16
:10520000121BAB410824A4440137212FE7D18900A8
:10521000891012184B4180BC17A413CC0137784376
:1052200079437C434F05C912CD17C0196941A702C4
:10523000A415CD17C9196C41DD17801859416C416F
:105240003E22CD17AC4208D000090E0730430909B1
:10525000260731432411043AF3E7FFF73CFDF0BD84
:1052600002490020F0BD02490020F0BD0000F0FF1F
:105270000000F07FAAB800006BDE1300A3EF0F0060
:1052800021170B00F34B98BFEC23F319D6104DCD2B
:10529000E3FB470E7AB9BC8ADBC18907CC542C02E8
:1052A0001846E103053083E7B029F8011E1FE087A7
:1052B0004505FE00249E41ACA9807F008117624510
:1052C00015E03F00E610ABA902F81F0088584555CD
:1052D00000FE0F00C4AAA90A80FF07005645550129
:1052E000E0FF0300ABA92A00F8FF010045550500C7
:1052F000FEFF0000AAAA0080FF7F0000551500E015
:10530000FF3F0000AB0200F8FF1F0000550000FE49
:10531000FF0F00000B0080FFFF0700000100E0FF0F
:10532000FF0300000000F8FFFF0100000000FEFF87
:10533000FF0000000080FFFF7F00000000E0FFFF93
:105340003F00000000F8FFFF1F00000000FEFFFF0D
:105350000F00000080FFFFFF07000000E0FFFFFFDD
:1053600003000000F8FFFFFF01000000FEFFFFFF49
:10537000000000000000008000000000000000406D
:105380000000000051434343C9188C46110C83B2FE
:105390004B4310B4040C614392B280B25043624359
:1053A0001C041B0C001910BC59411304120CC0182A
:1053B00051416144704700004840414048400E4B15
:1053C0005B6818470C4B1B6818470C4A936F9B0887
:1053D00002D2094BDB681847F0B5146E556E576F53
:1053E000166FFFF7F6FF054A14665566576716678E
:1053F000F0BD014B9B681847C82A0020000000D070
:1054000007B548404140484001E0C04607B542006A
:10541000120E03D0FF2A03D1420218D8C00DC005D6
:105420004A00120E03D0FF2A03D14A020FD8C90D39
:10543000C9050122414005D4414001D5814207BD43
:10544000884207BD0143491801D0C043001807BD79
:1054500000B5FFF7DBFF01D0002000BD012000BD3B
:1054600000B5FFF7CDFF804100BD491A002807D1E4
:1054700008467047C10FC90700D54042002817D021
:10548000F44603B40B4B1B68984706BC81409E381A
:105490004042803107D20B0607D04900490AC005B7
:1054A0001043084360470130F8E7490A8902F5E7ED
:1054B00070470000405E002041000A0E80231B065A
:1054C0007E2A0BDD9E3A0BDAC117400240081843D2
:1054D0005242D04049000131484370470020704794
:1054E000C00FC01801387047C0420DD300B540004E
:1054F0004008002100F012F8002801D4404200BD0D
:105500008020000600BD0000034BDB69FC46184705
:105510001CDF855900100000C82A0020014B5B6A7F
:1055200018470000C82A0020034BDB6FFC461847D1
:105530007CDF9D5900100000C82A0020132310B5FD
:1055400012481C78FEF722FB0100012C0AD003DD73
:1055500080220F4800F070FA0E48FEF70FFB0E4B4A
:10556000186010BD0A4C5422200000F065FA0B4B65
:105570006365A365E36523666366A366E3662367E5
:105580006367A367E3672362E361E5E753460000CF
:10559000C82A00204C330000405E002059590010FA
:1055A000F0B5D6464F4646460C00C0B5051C01294D
:1055B00053D0CE0F76187610012E46D00327CA1787
:1055C00017407F18BF10012F37D0072313405B18F7
:1055D000DB109846012B2BD00F2313405B181B11B7
:1055E0009946012B1BD01F2313405B185B119A4671
:1055F000012B0BD03F210A4012199111FFF7D0FF68
:10560000011CFFF7F6FE5346DB072FD4011CFFF702
:10561000F0FE4B46DB0702D5291CFFF7EAFE011C12
:10562000FFF7E7FE4346DB0702D5291CFFF7E1FE43
:10563000011CFFF7DEFEFB0714D4011CFFF7D9FEA7
:10564000F30702D5291CFFF7D4FE011CFFF7D1FE9A
:10565000E30702D5291CFFF7CCFEE0BCBA46B146F1
:10566000A846F0BD291CFFF7C4FEE6E7291CFFF79A
:10567000C0FECBE7F8B50400061C0D1C002817DAA5
:105680004B001B0E7F3B0ED41722D31A0BD40121E3
:105690000A009A40013A2A4205D1172B28D02A0045
:1056A000DA40114224D180231B069C466444261C08
:1056B000281CFFF701FFE20D07000100002A22D09D
:1056C000FF2A20D064021ED12748874202DB38001F
:1056D000FF2F41DC7F3A504303007F33002B3DDD39
:1056E000FE2B3DDCFE239B059C46C005604409E083
:1056F00080231B06E018291CFFF7BCFF80231B0634
:105700009C466044F8BD002F10D03B002033402B56
:105710000FD8002F06DAFE20311C8005FFF755FE5A
:105720007942061C301CFFF73BFFEBE7FE208005AB
:10573000E8E7301CFFF7F8FEFEF704FE06000F0056
:10574000281CFFF7F1FE32003B00FEF7E8FCFEF7F5
:10575000EDFDFEF7A9FDD5E7FF20BBE70020D1E76F
:10576000FF20C005CEE7C04600FFFFFF420010B596
:10577000031C0400120E11D07F3A0AD417218A1A92
:10578000002A05DD01209040002B0ADB404220402A
:1057900010BD0020002BFBDA0348F9E7C30FD80740
:1057A000F6E7441EE418F1E7000080BFF8B5CE46E6
:1057B00047460D1CFE2180B58905041CFFF748FEF5
:1057C000261C00282CD1EB0DFF2798463B4099461C
:1057D00043461F4229D05D49201CFFF739FE0028AF
:1057E00026D04B46FF2B20D04346FF2B41D0584BB1
:1057F000984538D07F224B4652429B1839D4534AA1
:105800001721CB1A002B06DD163999400B00013BFE
:105810002B4200D07CE0291C201CFFF72BFF061C2C
:10582000301CC0BCB946B046F8BDFE26B605F7E749
:105830003900E30D220019401F4216D17F224B464A
:105840005242002D18DB9A180DD417239B1A0AD444
:10585000012002009A40013A2A4204D1172BDFD0DE
:10586000DD402842DCD10026DAE7FF2B1AD1002DDB
:10587000F9DBFF26F605D3E79A18FAD417239B1A0B
:10588000F7D4012002009A40013A2A42F1D1172BA5
:1058900002D0DD402842ECD0FF26E00FC007F6051D
:1058A0000643BDE72A48834227D17F224B46524216
:1058B000002D10DB9A18DCD417239B1AD9D40122AF
:1058C0009A40013A2A42D4D1172B02D0DD40EB078F
:1058D000CFD5204EA4E79A18C5D417239B1AC2D45B
:1058E00001229A40013A2A42BDD1172B02D0DD4055
:1058F000EB07B8D58026360692E74346FF2B1DD02E
:1059000080451FD07F214B4649425B1800D477E782
:10591000002AAEDB201CFFF707FEFEF713FD060092
:105920000F00281CFFF700FE32003B00FEF7F7FBDC
:10593000FEF7FCFCFEF7B8FC061C71E77E2998DC3C
:1059400000266DE77E2994DD8DE7C046000080BF0C
:10595000FF010000000080FF07B5604601880A0AC9
:105960000230DF2AFAD1C9B2820804D30288408803
:105970000004104300E00068014A5050039007BD46
:10598000C82A00200021C2158032803201D0024A8C
:105990001047002070470000CD2A0000C30FDB072E
:1059A00041000A0E07D0FF2A08D00909054A8918C4
:1059B0001943400770471900002070470249C91871
:1059C000FAE70000000000380000F07F10B5040086
:1059D0000DF084FD002804D0034B04199C4200D82C
:1059E00010BD0248FCF7BCFD000004206850011007
:1059F00010B50C000EF092F8002804D0034B0419E7
:105A00009C4200D810BD0248FCF7AAFD000004200B
:105A10006850011010B50DF06BFD10BD0148042158
:105A2000014B1847B01F00209D3B0010014B1B6825
:105A300018470000B01F0020014B5B6818470000AA
:105A4000B01F002010B5FFF7C1FF10BD10B5FFF764
:105A5000BDFF10BD10B5FFF7DDFF10BD10B5FFF79E
:105A6000D9FF10BD030010B5080011001B6898474E
:105A700010BDC046F0B546464F46D646C0B5437D3C
:105A800080460E001700002B46D0002A3FDD4B1E3B
:105A90009946244B0125002400209A460DE04B46F0
:105AA0001B5D0D3B5A425341325DDBB20A2A0BD0DB
:105AB0002B00013401359F421ADD002CEFD1434603
:105AC000325D1B7D0A2AF3D1002BF1D1A04204DA0A
:105AD0004346211A1B6830189847434650461B68B6
